:020000040801F1
:10000000382D002071020108151501086112010840
:1000100011150108F9090108C930010800000000A4
:10002000000000000000000000000000D11D0108D9
:10003000D50D010800000000B1150108C11E01081E
:100040008B0201088B0201088B020108D91C0108F0
:100050008B0201088B0201088B0201088B02010848
:100060008B0201088B0201088B0201088B02010838
:100070008B0201088B020108FD090108A90A010889
:100080008B020108BD0A01088B0201088B020108DE
:100090008B0201088B0201088B0201088B02010808
:1000A0008B0201088B0201088B0201088B020108F8
:1000B0008B020108ED1F01088D2201088B02010847
:1000C0008B0201088B0201088B0201088B020108D8
:1000D0008B020108D12D0108F12D01088B020108C6
:1000E0008B0201086D1801088B0201088B020108C0
:1000F0008B0201088B0201088B0201088B020108A8
:100100008B0201088B0201088B0201088B02010897
:10011000B12D01088B0201088B020108A9220108F8
:100120008B0201088B0201088B0201088B02010877
:100130008B0201088B0201088B0201088B02010867
:100140008B0201088B0201088B0201088B02010857
:100150008B0201088B020108D10A01088B020108F9
:100160008B0201088B0201088B0201088B02010837
:100170008B0201088B0201088B0201088B02010827
:100180008B0201088B02010800F002F800F060F811
:100190000AA090E8000C82448344AAF10107DA45E2
:1001A00001D100F055F8AFF2090EBAE80F0013F0D4
:1001B000010F18BFFB1A43F0010318474C2301003D
:1001C0006C2301000A444FF0000C10F8013B13F0BF
:1001D000070408BF10F8014B1D1108BF10F8015BA0
:1001E000641E05D010F8016B641E01F8016BF9D193
:1001F00013F0080F1EBF10F8014BAD1C0C1B09D1EA
:100200006D1E58BF01F801CBFAD505E014F8016B5B
:1002100001F8016B6D1EF9D59142D6D370470000ED
:100220000023002400250026103A28BF78C1FBD8FF
:10023000520728BF30C148BF0B6070471FB511F08F
:100240006CFE9DE8030000F00BFA1FBD10B510BD59
:1002500000F072FA1146FFF7F1FF0DF063FC00F0B9
:1002600090FA03B4FFF7F2FF03BC00F0C1FA0000FC
:100270000948804709480047FEE7FEE7FEE7FEE73A
:10028000FEE7FEE7FEE7FEE7FEE7FEE70448054976
:10029000054A064B70470000851F010889010108C7
:1002A00038230020382D0020382500203825002054
:1002B00070B5064600F0B8F9056806F10B0020F0AD
:1002C0000704B4429CBF002070BD2B466A68BAB1D7
:1002D0001068A04210D304F1080188423CBF506866
:1002E000586007D35168101941601168091B0160FB
:1002F00058601460101D70BD13465268002AE7D183
:100300002146284600F098F90028DED170BD70B56E
:100310000446051F00F088F90068002C14BF4468EB
:1003200070BD002C18BFAC423CBF20466468F8D3B7
:1003300001680A18AA4218BF456003D12A68054619
:100340001144016028684119A1421CBF6C6070BD56
:100350006168696021680844286070BD53EA020C36
:1003600000F069802DE9F04B4FF00006002B1FBF15
:10037000B3FA83F503FA05F424FA05F65E4012BFDA
:100380001643B2FA82F502FA05F4C5F120051EBF44
:1003900022FA05FC44EA0C04203556EA044C4FEAE4
:1003A000144418BF641C4FF000084FF0000990423D
:1003B00071EB030C39D3002919BFB1FA81F701FAA7
:1003C00007F6B0FA80F700FA07F6C7F120071EBF5C
:1003D00020FA07FC46EA0C062037B6FBF4FCA7EB34
:1003E0000507103F07F01F0BCBF120060CFA0BFBA3
:1003F0002CFA06F644BFB3460026202FA4BF5E4663
:100400004FF0000B5BEA060C08BF4FF0010B19EB35
:100410000B09ABFB027C48EB0608C01B06FB02CCB9
:100420000BFB03CC71EB0C01C1E70B4602464146C6
:100430004846BDE8F08B13B54FF000004FF00001C7
:10044000AFF30080BDE81C407047032A40F23080C3
:1004500010F0030C00F0158011F8013BBCF1020F05
:10046000624498BF11F801CB00F8013B38BF11F886
:10047000013BA2F1040298BF00F801CB38BF00F89D
:10048000013B11F0030300F02580083AC0F008801A
:1004900051F8043B083A51F804CBA0E80810F5E7FE
:1004A000121D5CBF51F8043B40F8043BAFF30080E1
:1004B000D20724BF11F8013B11F801CB48BF11F856
:1004C000012B24BF00F8013B00F801CB48BF00F826
:1004D000012B704710B5203AC0F00B80B1E81850DE
:1004E000203AA0E81850B1E81850A0E81850BFF41E
:1004F000F5AF5FEA027C24BFB1E81850A0E81850BD
:1005000044BF18C918C0BDE810405FEA827C24BF10
:1005100051F8043B40F8043B08BF7047D20728BF9E
:1005200031F8023B48BF11F8012B28BF20F8023BED
:1005300048BF00F8012B70474FF000020429C0F0BB
:10054000128010F0030C00F01B80CCF1040CBCF105
:10055000020F18BF00F8012BA8BF20F8022BA1EB57
:100560000C0100F00DB85FEAC17C24BF00F8012B3C
:1005700000F8012B48BF00F8012B70474FF0000234
:1005800000B5134694469646203922BFA0E80C5089
:10059000A0E80C50B1F12001BFF4F7AF090728BF64
:1005A000A0E80C5048BF0CC05DF804EB890028BFE0
:1005B00040F8042B08BF704748BF20F8022B11F009
:1005C000804F18BF00F8012B704710B5044610F09B
:1005D000030F08BF11F0030F40F015804FF0013EEC
:1005E000121FC0F20E8051F8043BA3EB0E0C2CEA54
:1005F000030C1CEACE1C08BF40F8043BF0D0A1F16C
:10060000040102F10402521E08DB11F8013B002B29
:1006100000F8013BF7D11146FFF78EFF204610BDD1
:10062000704770477047000000487047E022002084
:10063000704770477047704738B504460A46002037
:100640006946AFF30080002808BF38BD0246009914
:10065000204600F04FF8012038BD012000F064B8BA
:10066000F8B5AFF30080054600200C46102000BF0F
:100670000646A819A0420DD9324669460020AFF3BC
:100680000080070008BF00F04FF80098A04218BF94
:100690000546C419FFF7C8FF05600746F01D20F0A6
:1006A00007004619284600F00AF8B44208BFF8BD12
:1006B000A21B31463868BDE8F84000F01BB80021A5
:1006C0000160C0E9011070471020704710B500F0BC
:1006D0000DF8006810BD10B5044600F007F804607E
:1006E00010BD000000487047D82200200048704725
:1006F000D8220020034640688C46002818BF884254
:100700003CBF03464068F8D318681844884207D0B5
:100710000CF1030020F00700001D411A521A014697
:10072000081D0A60FFF7F3BD10B500F039F8BDE809
:10073000104000F02FB870477546FFF7D3FFAE4664
:1007400005006946534620F00700854618B020B5DD
:10075000FFF79CFDBDE820404FF000064FF000077A
:100760004FF000084FF0000B21F00701AC46ACE859
:10077000C009ACE8C009ACE8C009ACE8C0098D46C6
:10078000704710B50446AFF300802046BDE8104026
:10079000FFF767BD002801D000F02AB870470000BD
:1007A00010B5012805D0002103A000F027F8012092
:1007B00010BD09A1F8E7000053494752544D454D7B
:1007C0003A204F7574206F662068656170206D65F2
:1007D0006D6F7279000000003A2048656170206DED
:1007E000656D6F727920636F7272757074656400E5
:1007F00001491820ABBEFEE72600020070B5054691
:100800000C460A2000E06D1C00F011F835B1287884
:100810000028F8D102E0641C00F009F814B1207837
:100820000028F8D1BDE870400A20AFF3008008B579
:1008300069468DF800000320ABBE08BDCA430260C4
:10084000704721B1826842F00102826003E0826851
:1008500022F00102826070470021084A1168084AAC
:100860001140D0E900231A4383681A43C3681A432E
:100870001143044AC2F804137047000004230140E6
:10088000E030FCFF0020014021B1826842F4807218
:10089000826003E0826822F480728260704721B136
:1008A000826842F40072826003E0826822F400727F
:1008B0008260704730B50246002000235068104C1B
:1008C00020400D790C6844EA05242043506090686C
:1008D0000C4C2040D1E903542C438D682C434D79B6
:1008E00044EA450420439060D06A20F470000C7DF7
:1008F000641EE4B2234340EA0350D06230BD0000DE
:10090000FFFEFFFCFDF7FFC0F0B504460D460020DA
:100910000021092D11DDE068A5F10A0606EB460766
:10092000072606FA07F18843A5F10A0606EB4606F4
:1009300003FA06F10843E0600CE0206905EB450787
:10094000072606FA07F1884305EB450603FA06F188
:1009500008432061072A0FDA606B561E06EB8607F4
:100960001F2606FA07F18843561E06EB860605FA8F
:1009700006F10843606322E00D2A0FDA206BD61FD0
:1009800006EB86071F2606FA07F18843D61F06EBFB
:10099000860605FA06F10843206310E0E06AA2F13A
:1009A0000D0606EB86071F2606FA07F18843A2F11B
:1009B0000D0606EB860605FA06F10843E062F0BD77
:1009C000816841F0804181607047000038B108497A
:1009D000096841F40001074AC2F8041306E004491B
:1009E000096821F40001034AC2F8041370470000AB
:1009F000042301400020014000BFFEE710B522495A
:100A0000224800F069F9012818D14FF0FA511F4827
:100A100000F068F81C491D4800F07EF800211C48D1
:100A200000F067FC01211A4800F0B8FC00211748CB
:100A300000F08CF801201749087010BD16491348C2
:100A400000F04AF901281DD14FF0FA510F4800F08B
:100A500049F811490D4800F05FF800210C4800F0FA
:100A600048FC01210A4800F099FC0021074800F0E9
:100A70006DF80A480A490A68026089888180012065
:100A80000849087000BFD8E70020001258600240F3
:100A90000058004089010020008000188A010020D1
:100AA000900100208801002010B50249024809F099
:100AB000A6FC10BD208000202C18002010B5024993
:100AC000024809F09CFC10BD00802020541B00202F
:100AD00010B50249024809F092FC10BD00800028C0
:100AE000C41F00200246094B9A4201D2084801E087
:100AF0000648103801F000531BB1064B0B40C36091
:100B000002E0044B0B408360704700001064024019
:100B1000006002407D0F7D0F0246094B9A4201D2D0
:100B2000084801E00648103801F000531BB1064B9D
:100B30000B40C36002E0044B0B4083607047000031
:100B400010640240006002407D0F7D0F21B10268F9
:100B500042F00102026003E0026822F0010202603A
:100B600070470000016821F001010160002101606F
:100B700041608160C1600161212141614A4988422F
:100B800004D13D21484A103A91608CE04649183121
:100B9000884205D14FF47461434A103A916082E073
:100BA00041493031884205D14FF474113E4A103A20
:100BB000916078E03C494831884205D14FF074613A
:100BC000394A103A91606EE037496031884204D169
:100BD0003649354A103AD16065E033497831884268
:100BE00004D13349304A103AD1605CE02E4990314B
:100BF000884204D12F492C4A103AD16053E02A4947
:100C0000A831884205D14FF03D51274A103AD160B2
:100C100049E02949884204D13D21274A083A116018
:100C200041E025491831884205D14FF47461224AC8
:100C3000083A116037E020493031884205D14FF43D
:100C400074111D4A083A11602DE01B494831884251
:100C500005D14FF07461184A083A116023E0164933
:100C60006031884204D11149134A121F11601AE001
:100C700011497831884204D10D490F4A121F116081
:100C800011E00D499031884204D10A490A4A121FE5
:100C9000116008E00849A831884204D14FF03D5165
:100CA000054A121F11607047106002403D0000208D
:100CB000400F002000003D2010640240014600204B
:100CC0000A6802F001020AB1012000E0002070472A
:100CD0000146486880B2704770B502460020002483
:100CE0000025124EB24201D2114B01E00F4B103BD6
:100CF000104E0E4036B11E2606EAD124166806EACA
:100D0000040502E0566906F0800501F000560EB1B8
:100D10005C6800E01C68084E344004EA010616B125
:100D20000DB1012000E0002070BD00001064024001
:100D3000006002403C0F3C0F7D0F7D0F10B501F0AD
:100D400080034BB122B1436943F08003436103E068
:100D5000436923F08003436180290BD02AB10368E3
:100D600001F01E042343036004E0036801F01E0445
:100D7000A343036010BD000010B500220268134BAE
:100D80001A40CC680B6823434C6923438C69234386
:100D9000CC6923430C6A23434C6A23438C6A234364
:100DA0004C6B23438C6B23431A430260426922F04D
:100DB0000702D1E90B3423431A4342610B694360B4
:100DC0004B6883608B68C36010BD00003F801CF0DF
:100DD000416070477047000001490860704700009B
:100DE000143C0140002123498279002A3AD00A4666
:100DF000126803689A430B461A600A1D126803685A
:100E00009A430B1D1A60027911440A6803681A4359
:100E10000A60184A0832126803689A43154B08336F
:100E20001A601A1D126803689A43124B0C331A6039
:100E30004279102A0ED11A1F126803681A430D4B0B
:100E400008331A601A1D126803681A43094B0C33E1
:100E50001A600DE00749427911440A6803681A4391
:100E60000A6005E0027911440A6803689A430A603F
:100E700070470000003C01400149086070470000D5
:100E80000C3C024070B504460A460026092502B90A
:100E900009E0012A01D1160205E0022A01D1160259
:100EA00001E04FF4407600F0B1F80546092D28D155
:100EB0001548006820F4407013490860084600682F
:100EC000304308600846006820F0F80008600846D3
:100ED000006844F0020108430B49086008460068B6
:100EE00040F48030086000F091F80546064800683C
:100EF00020F00200044908600846006820F0F8006D
:100F00000860284670BD0000103C024001460020E9
:100F1000034A12680A400AB1012000E0002070472D
:100F20000C3C024009201349096801F48031B1F5F5
:100F3000803F01D101201CE00E49096801F0100139
:100F400009B1062015E00B49096801F4807109B167
:100F500002200EE00749096801F0EF0109B10720FE
:100F600007E00449096801F0020109B1082000E026
:100F7000092070470C3C02400348006840F00040E4
:100F80000149086070470000103C024030B502463D
:100F90000C46092500F03AF80546092D19D10E48EE
:100FA000006820F440700C4908600846006840F46E
:100FB000007008600846006840F001000860146096
:100FC00000F024F805460448006820F001000249BA
:100FD0000860284630BD0000103C0240014A1070F5
:100FE00070470000003C02400548006800F00040E7
:100FF00028B1044802490C3908600348086070476A
:10100000103C024023016745AB89EFCD08B50920AC
:101010000090FFF787FF009002E0FFF783FF00904A
:101020009DF800000128F8D09DF8000008BD0000E0
:1010300010B504464148844208D10121084600F019
:10104000C9FA0021012000F0C5FA76E03C4884424C
:1010500008D10121022000F0BDFA0021022000F099
:10106000B9FA6AE03748844208D10121042000F02F
:10107000B1FA0021042000F0ADFA5EE0324884426B
:1010800008D10121082000F0A5FA0021082000F075
:10109000A1FA52E02D48844208D10121102000F02D
:1010A00099FA0021102000F095FA46E02848844281
:1010B00008D10121202000F08DFA0021202000F02D
:1010C00089FA3AE02348844208D10121402000F007
:1010D00081FA0021402000F07DFA2EE01E48844273
:1010E00008D10121802000F075FA0021802000F055
:1010F00071FA22E01948844208D10121801500F0DC
:1011000069FA0021A01500F065FA16E0144884423F
:1011100008D10121401500F05DFA0021601500F0B2
:1011200059FA0AE00F48844207D10121001500F066
:1011300051FA0021201500F04DFA10BD00000240C8
:101140000004024000080240000C0240001002406F
:101150000014024000180240001C0240002002401F
:101160000024024000280240F0B50A460021002376
:10117000002400BF3DE0012505FA01F3156805EAEA
:1011800003049C4234D105684F000326BE40B5439A
:10119000056015794E00B540066835430560157940
:1011A000012D02D01579022D16D185684F00032636
:1011B000BE40B543856055794E00B54086683543DD
:1011C0008560456801268E40B5434560456896793F
:1011D0008E40B6B235434560C5684F000326BE4019
:1011E000B543C560D5794E00B540C6683543C56086
:1011F000491C1029BFD3F0BDF0B5002300244D07D2
:10120000ED0E02FA05F3CE1000F1200555F8265038
:101210004E07F70E0F26BE40B543CF1000F1200653
:1012200046F82750CE1000F1200555F8265045EA23
:101230000304CE1000F1200545F82640F0BD02461B
:10124000002013690B400BB1012000E00020704723
:10125000418370470183704742694A404261704749
:1012600015E0012108200FF01DFE00BFBFF34F8FD6
:101270000748006800F4E06006490843001D04497F
:101280000860BFF34F8F00BF00BF00BFFDE7E8E776
:101290000CED00E00000FA0521B1028842F4806202
:1012A000028004E002884FF6FF331A400280704744
:1012B00070B502460024002500230020958A138B78
:1012C0001B0445EA030626F07F4404EA01068E4229
:1012D00001D1012000E0002070BD21B1028842F060
:1012E0000102028004E002884FF6FE731A40028079
:1012F000704721B1828842F40062828004E08288D3
:101300004FF2FF731A408280704721B1828842F405
:101310008052828004E082884EF6FF731A408280F9
:101320007047000010B504461348844209D10121DA
:10133000480500F07FF900214FF4001000F07AF921
:1013400018E00E48844209D10121880500F072F9A5
:1013500000214FF4800000F06DF90BE00848844252
:1013600008D10121C80500F065F900214FF4000003
:1013700000F060F910BD000000540040005800402B
:10138000005C004021B1028842F48072028004E0D7
:1013900002884FF6FF631A400280704721B102882D
:1013A00042F40072028004E002884FF6FF531A40B4
:1013B000028070470CB50246002000230193009381
:1013C00000920B0F019321F07F41019B1BB1009B09
:1013D0001433009303E0090C009B18330093009B27
:1013E0001B680B400BB1012000E000200CBD000089
:1013F0002DE9FF4704460D460026B1460427DFF8D5
:10140000CC80A6884FF6C0700640684600F042F9CE
:10141000DDF808802E48B8FBF0F01FFA80F946EAA4
:101420000906A68020884FF6FE710840208000261D
:101430002849286888420CD828684000B8FBF0F09A
:1014400087B2042F00DA04273E4309F1010020840B
:1014500027E0E8884BF6FF71884206D1286800EB48
:101460004000B8FBF0F087B209E0286800EBC0014B
:1014700001EB0010B8FBF0F087B247F48047C7F3E8
:101480000B0008B947F0010747F4004006434FF44A
:10149000967009FB00F04FF47A7190FBF1F0401C5C
:1014A0002084A683208840F00100208026884FF603
:1014B000F5300640A8886989084306432680A88934
:1014C000298908432081BDE8FF87000000127A00C7
:1014D00040420F00A0860100B1F5006F04D10288E0
:1014E00042F40062028004E002884FF2FF731A4067
:1014F000028070470146088AC0B2704712B141F0BD
:10150000010101E001F0FE01018270470182704794
:1015100000BFFEE77047000070B5002100230F22D6
:10152000C4781CB3174C246804F4E064C4F5E06488
:10153000C4F30721C1F10404E3B20A4144789C409A
:10154000E1B28478144021430C07210E0E4C05783B
:101550006155047804F01F050124AC4005786D1135
:10156000AD0005F1E025C5F8004109E0047804F07C
:101570001F050124AC40054D0678761145F826403C
:1015800070BD00000CED00E000E400E080E100E050
:10159000024A0A400243024B1A60704780FFFF1F55
:1015A00008ED00E0014908627047000000000E42AB
:1015B0007047000029B1064A12680243044B1A60C2
:1015C00004E0034A12688243014B1A60704700002E
:1015D0003038024029B1064A12680243044B1A60AF
:1015E00004E0034A12688243014B1A60704700000E
:1015F0001038024029B1064A12680243044B1A60AF
:1016000004E0034A12688243014B1A6070470000ED
:101610003438024029B1064A12680243044B1A606A
:1016200004E0034A12688243014B1A6070470000CD
:101630004038024029B1064A12680243044B1A603E
:1016400004E0034A12688243014B1A6070470000AD
:101650002038024029B1064A12680243044B1A603E
:1016600004E0034A12688243014B1A60704700008D
:101670004438024029B1064A12680243044B1A60FA
:1016800004E0034A12688243014B1A60704700006D
:1016900024380240F0B50021002200240225002653
:1016A0000223324F3F6807F00C0121B1042905D015
:1016B000082937D105E02E4F076036E02D4F07602F
:1016C00033E02A4F3F1F3F68C7F38056274F3F1F25
:1016D0003F6807F03F036EB1264FB7FBF3F7DFF823
:1016E0008CC0ACF1040CDCF800C0CCF3881C07FB08
:1016F0000CF40CE01E4FB7FBF3F7DFF870C0ACF151
:10170000040CDCF800C0CCF3881C07FB0CF4174F6A
:101710003F1F3F68C7F301477F1C7D00B4FBF5F70F
:10172000076002E0124F076000BF00BF0F4F3F6825
:1017300007F0F0010909104F7A5C0768D74047604D
:101740000A4F3F6807F4E051890A0B4F7A5C4768FB
:10175000D7408760054F3F6807F46041490B064F4B
:101760007A5C4768D740C760F0BD00000838024087
:101770000024F40000127A008002002010B5014617
:101780000022002300204A11012A02D10A4C2368BA
:1017900008E0022A03D1084C7034236802E0064CAA
:1017A0007434236801F01F02012494401C400CB1E2
:1017B000012000E0002010BD003802400021094A4D
:1017C00011701170012802D0042808D103E0012112
:1017D000044A117004E00521024A117000E000BFC4
:1017E00000BF704770380240014908607047000030
:1017F000800E474201490860704700003C0E474296
:10180000002100F44072B2F5407F08D1094A116806
:1018100021F4F811084A02401143064A1160054AB2
:1018200068321268C0F30B031A43024B68331A6024
:101830007047000008380240FFFCFF0F30B1074935
:10184000096841F00401054A116005E0034909688F
:1018500021F00401014A11607047000000080650A1
:1018600001480068704700000808065010B54FF4A2
:10187000805000F09BF828B14FF4805000F02EF813
:1018800000F00AFF4FF4005000F090F828B14FF438
:10189000005000F023F800F000FF4FF40030014941
:1018A000086010BD143C0140014600BF080900EB70
:1018B0008000420001F00F001044C0B270470146A2
:1018C000002204E0501CC2B2A1F10A00C1B20A29F0
:1018D000F8DA100741EA10607047000000210109A2
:1018E0008AB242F08002044B1B6803F0800363EA73
:1018F0000202014B1A6070470C28004008B5002214
:10190000009200200021104A126802F04002CAB979
:10191000421E0D4B1A6000BF0B4A126802F04001D4
:10192000009A521C0092009AB2F5803F01D0002923
:10193000F2D0054A126802F040020AB1012002E02A
:10194000002000E0012008BD0C280040034800688A
:1019500020F0800001490860704700000C2800401A
:1019600070B506460C4600250E4800680E4900EA90
:101970000105280CE070C5F30420607005F03F00FD
:10198000A070C5F3423020705EB9E078FFF78CFF9D
:10199000E0706078FFF788FF6070A078FFF784FF41
:1019A000A07070BD042800403FFFFF0030B5014625
:1019B0000020002200230C4C246804F004020A4C8E
:1019C000383C24680C4002EAD13544EA0503064C51
:1019D000343C246804EA11121BB194B20CB101200A
:1019E00000E0002030BD00004028004070B50646F1
:1019F0000C4600250F4800680F4900EA0105C5F3B1
:101A000005402070C5F30620607005F07F00A070CF
:101A100005F48000000CE0705EB92078FFF744FF09
:101A200020706078FFF740FF6070A078FFF73CFF00
:101A3000A07070BD002800407F7F7F00CA22174B36
:101A40001A6053221A6091B1144A1C3A126820F0AD
:101A500004031A43114B1C3B1A60104A1C321268D3
:101A600000F004031A430D4B1C331A6011E00B4ABB
:101A70001C3A126820F004039A43084B1C3B1A607E
:101A8000064A1C32126800F004039A43034B1C33CD
:101A90001A60FF22014B1A607047000024280040A2
:101AA00030B504460025CA20154908605320086057
:101AB000FFF724FF00B91DE011481C38006820F032
:101AC00040000F491C390860084600682168084337
:101AD0000B491C3908600A491439A0680860084697
:101AE0000068A18840EA0140054914390860FFF701
:101AF0002DFF0125FF2002490860284630BD000067
:101B00002428004008B501460020009004480090B9
:101B1000009800EB810000900098006808BD00006C
:101B2000502800402DE9F04105460C4600260027CC
:101B30004DB9607800F01000102804D1607820F0D2
:101B400010000A30607005B908E06078FFF7ACFE5D
:101B50000646A078FFF7A8FE064600BF55B1E0781C
:101B60000004617840EA0120A1780843217840EA26
:101B7000413611E0E078FFF7A2FE4FEA00486078B6
:101B8000FFF79DFE48EA0028A078FFF798FE48EA94
:101B90000008207848EA4036CA20124908605320DD
:101BA0000860FFF7ABFE08B9002714E00E4830408C
:101BB0000C4920390860FFF7C9FE0A481C38006844
:101BC00000F0200030B900F09FF808B9002702E0CB
:101BD000012700E00127FF20024908603846BDE8E0
:101BE000F0810000242800403FFFFF002DE9F04174
:101BF00005460C46002600274DB92E48006800F027
:101C0000400000B102E00020E07000BF0DE0294874
:101C1000006800F0400020B12078FFF745FE06463E
:101C200002E00020E07000BF00BF55B12078000442
:101C3000617840EA0120A1780843E17840EA014652
:101C400011E02078FFF73BFE4FEA00486078FFF78D
:101C500036FE48EA0028A078FFF731FE48EA00087F
:101C6000E07848EA0046CA2012491C310860532037
:101C70000860FFF743FE08B9002713E00E48304024
:101C80000C4908390860FFF761FE0A48006800F057
:101C9000200030B900F038F808B9002702E0012729
:101CA00000E00127FF2003491C3108603846BDE8E9
:101CB000F0810000082800407F7F7F00CA21054A8C
:101CC000116053211160034910390860FF21116030
:101CD000704700002428004010B54FF48040FFF703
:101CE00065FE48B14FF48040FFF7F8FD4FF48000E7
:101CF000FFF772F800F0DCFE4FF480000149086045
:101D000010BD0000143C014008B5002200920020E4
:101D10000021CA22134B1A6053221A60114A183A42
:101D2000126822F0A0020F4B183B1A6000BF0D4A48
:101D3000183A126802F02001009A521C0092009A90
:101D4000B2F5003F01D00029F1D0064A183A1268D6
:101D500002F020020AB1012000E00020FF22014B26
:101D60001A6008BD24280040CA210A4A1160532184
:101D7000116008491C39096821F00701054A1C3A1D
:101D800011601146096801431160FF21014A116089
:101D9000704700002428004008B500220092044A41
:101DA0000092009A02EB80020092009A116008BD36
:101DB0005028004018B1FF21044A116004E0CA21F4
:101DC000024A11605321116070470000242800402E
:101DD000704700000CB50020019000903448006866
:101DE00040F480303249086000BF3148006800F498
:101DF000003000900198401C0190009818B901989B
:101E0000B0F5A04FF1D12A48006800F4003010B1BD
:101E10000120009001E0002000900098012846D1A8
:101E200023484030006840F080502149403108602C
:101E30002048006840F440401E4908601C480830B3
:101E400000681B49083108600846006840F40040FB
:101E500008600846006840F4A05008601648091F52
:101E60000860081F006840F08070091F086000BF0C
:101E70000F48006800F000700028F9D040F20570AB
:101E80000E4908600A480830006820F0030008493D
:101E9000083108600846006840F00200086000BF92
:101EA00003480830006800F00C000828F8D10CBD89
:101EB000003802400070004008544007003C0240D7
:101EC0007047000070B50020002202230024022188
:101ED000274D2D6805F00C0020B1042806D00828F5
:101EE00034D107E0234D244E356033E0234D224E9C
:101EF00035602FE01E4D2D1F2D68C5F380541C4DFD
:101F00002D1F2D6805F03F0154B11C4DB5FBF1F5B7
:101F1000174E361F3668C6F3881605FB06F209E031
:101F2000144DB5FBF1F5124E361F3668C6F3881610
:101F300005FB06F20E4D2D1F2D68C5F301456D1CE6
:101F40006B00B2FBF3F50C4E356003E0094D0A4E11
:101F5000356000BF00BF064D2D68C5F30315084E60
:101F6000705D054D2D68C540034E356070BD0000A5
:101F7000083802400024F4009002002000127A0089
:101F80009402002010B51548006840F47000134911
:101F900008601348006840F0010011490860002003
:101FA0000F49083108600E4800680E4908400C4986
:101FB00008600D48091D0860081F006820F4802093
:101FC000091F0860002006490C310860FFF702FF76
:101FD0004FF0006001498039086010BD88ED00E0D5
:101FE00000380240FFFFF6FE1030002470B52DEDE2
:101FF000048B0121944800F0ABFA002875D0934877
:10200000006820F080008030904908600846008811
:10201000C0F3C020002869D108460068C0F3805092
:10202000002863D08A480078002877D1894890ED4D
:10203000EA0AD0EDEF0A30EE600A10EE101A0846F8
:102040000FF0FAFE41EC190BB0EE490AF0EE690A06
:1020500001F07AFDB0EE408AF0EE608A9FED7E0BD3
:1020600053EC102B51EC180B0FF094FC62D27C480F
:10207000007800285ED1774890EDEF0AD0EDEA0AAB
:10208000B4EEE00AF1EE10FA01DD012000E00020DC
:102090000446704890EDEF0AD0EDEA0AB4EEE00A8B
:1020A000F1EE10FA01D2012000E000200546694857
:1020B00090EDEA0AD0ED270AB4EEE00AF1EE10FA4C
:1020C00004DB1CB100200DF037FE32E0614890EDDA
:1020D000EA0AD0ED2C0AB4EEE00AF1EE10FA06D8C6
:1020E0002DB100200DF028FE23E0AAE080E0594841
:1020F00090EDEA0AD0EDEF0AB4EEE00AF1EE10FA44
:102100000DDD014691ED720AB1EE400ABDEEC00A46
:1021100010EE101A48B20DF00FFE0AE04BE04D49E8
:1021200091ED720ABDEEC00A10EE101A48B20DF021
:1021300003FE00BF474890EDEA0AD0EDEF0A30EE0B
:10214000600A10EE101A08460FF076FE41EC190BEB
:10215000B0EE490AF0EE690A01F0F6FCB0EE408AF2
:10216000F0EE608A9FED3C0B53EC102B51EC180BFA
:102170000FF02EFA03D93A48007801281ED1012029
:102180003749087000200DF0D7FD30480088C0F3B3
:10219000403098B12D48006820F400502B49086069
:1021A00008F0D8F82F48007840B100202D49087079
:1021B0000EF0D0FC02E000200DF0BEFD254890EDB1
:1021C000A90ABCEEC00A10EE100AC0B208B107F0AE
:1021D00063FA204890EDAE0ABCEEC00A10EE100A79
:1021E000C0B250B31A48007838BB07F00BF924E0AE
:1021F00000200DF0A1FD00201B490880154890ED3E
:10220000EA0A1A4880ED000A0020114908701849AE
:1022100008809FED180A184880ED000A0020174931
:10222000088017490880174908701749087007483F
:10223000006820F40050054908600121024800F0C0
:10224000AFF8BDEC048B70BD000400403C010020E1
:102250002C010020E0100020000000000000F03FF2
:102260003801002014010020220100202801002054
:102270002E0100200000000030010020200100207D
:102280001C0100201E0100201F01002010B50121AB
:10229000044800F05DF918B10121024800F080F80F
:1022A00010BD00000008004010B52DED028B01218B
:1022B0002E4800F04DF9002855D02D480068401CEC
:1022C0002B49086007F0CCFC294800681421B0FBBA
:1022D000F1F201FB120008B90CF064FB244800681D
:1022E0003221B0FBF1F201FB120028B94AF6AA2014
:1022F0002049086007F006FB1D4800684FF47A711A
:10230000B0FBF1F201FB120058B900211A4800F0AD
:10231000FDF907F055F907F057F807F0A9FA07F0AB
:1023200069FB1348006841F27071B0FBF1F201FBE8
:10233000120008B907F026F80D4800680FF034F9CC
:1023400041EC180B9FED0D0B53EC102B0FF07CF8AC
:1023500005D101200B4908700020054908600121C2
:10236000024800F01DF8BDEC028B10BD00140040C7
:102370006401002000300040B00200200000000096
:1023800000F925414D01002021B1028842F0800270
:10239000028004E002884FF67F731A400280704783
:1023A000CA430282704721B1028842F001020280D2
:1023B00004E002884FF6FE731A4002807047000066
:1023C00010B504465548844208D101210846FFF75C
:1023D00051F900210120FFF74DF99DE0B4F1804F44
:1023E00008D101210846FFF725F900210120FFF758
:1023F00021F991E04A48844208D101210220FFF7E7
:1024000019F900210220FFF715F985E045488442BB
:1024100008D101210420FFF70DF900210420FFF766
:1024200009F979E04048844208D101210820FFF7EA
:1024300001F900210820FFF7FDF86DE03B488442D8
:1024400008D101211020FFF7F5F800211020FFF737
:10245000F1F861E03648844208D101212020FFF7DD
:10246000E9F800212020FFF7E5F855E031488442E3
:1024700008D101210220FFF7FDF800210220FFF71B
:10248000F9F849E02C48844209D101210804FFF7FA
:10249000F1F800214FF48030FFF7ECF83CE02748DA
:1024A000844209D101214804FFF7E4F800214FF4E8
:1024B0000030FFF7DFF82FE02148844209D10121E5
:1024C0008804FFF7D7F800214FF48020FFF7D2F8F7
:1024D00022E01C48844208D101214020FFF7AAF8DD
:1024E00000214020FFF7A6F816E01748844208D1E3
:1024F00001218020FFF79EF800218020FFF79AF845
:102500000AE01248844207D101218015FFF792F8B2
:102510000021A015FFF78EF810BD0000000001405B
:102520000004004000080040000C00400010004083
:1025300000140040000401400040014000440140FC
:102540000048014000180040001C004000200040EE
:1025500030B50246002000230024158A05EA010355
:10256000958905EA010413B10CB1012000E00020B7
:1025700030BD1AB183890B43838102E083898B4389
:102580008381704770B5002400220023058C4FF62C
:10259000FE7635400584028C8388048B4FF68F7558
:1025A0002C40B51E2C400D882C43751E2A408D8969
:1025B0002A434D882A43104DA84202D00F4DA8420D
:1025C00013D14FF6F7752A40CD892A434FF6FB7594
:1025D0002A408D882A434FF6FF652B404FF6FF5562
:1025E0002B400D8A2B434D8A2B43838004838D68B7
:1025F0004563028470BD00000000014000040140FA
:102600000A460021018B4FF6F773194011430183ED
:102610007047000000220288184B98420ED0184BD9
:1026200098420BD0B0F1804F08D0164B984205D09D
:10263000154B984202D0154B984204D14FF68F7338
:102640001A404B881A43124B984207D0114B9842BC
:1026500004D04FF6FF431A400B891A4302804B689F
:10266000C3620B880385054B984202D0044B984205
:1026700001D18B7A038601238382704700000140D9
:10268000000401400004004000080040000C00402D
:1026900000100040001400407047704770B50446B9
:1026A0006CB90120FFF7A0F800BF6120FFF766F8C2
:1026B0000028FAD04FF40070FFF7A2F815E0012CC3
:1026C00013D10120FFF77AF8052503E06D1EC8201D
:1026D00007F066FD4120FFF751F808B9002DF5DC41
:1026E0004FF48070FFF78CF800BF0120FFF782F8ED
:1026F0000020FFF75FFBFFF707FB0120FFF75AFB06
:1027000041F234211320FFF747FB70BD70B504463A
:102710000D4625B918490020FFF768F903E016496E
:102720000120FFF763F9144800786071124840787F
:10273000207111488078207010480068608025B9A9
:102740000F490020FFF70CF903E00D490120FFF7C6
:1027500007F90B48C0786072094840782072084831
:102760008078E07106480078A071204600F096F865
:102770000646E66070BD0000D0000020282800401A
:10278000D400002030B5C1603C23B1FBF3F403FB5F
:10279000141303703C23B1FBF3F1B1FBF3F403FB1F
:1027A000141303713C23B1FBF3F11823B1FBF3F4D1
:1027B00003FB141343711823B1FBF3F1CB1C072463
:1027C000B3FBF4F504FB15335B1C837140F2B2726A
:1027D00023E0D41702EB9474A410A2EB84042CB968
:1027E000642492FBF4F504FB152434B94FF4C87447
:1027F00092FBF4F504FB152434B9B1F5B77F02D38D
:10280000A1F5B77107E009E0B1F5B67F02D9A1F2F1
:102810006D1100E002E0531C9AB2DAE700BFA2F5A6
:10282000FA634372002303722CE0D41702EB947412
:10283000A410A2EB84042CB9642492FBF4F504FBED
:10284000152434B94FF4C87492FBF4F504FB152435
:1028500054B9047A104B1B5D8B4204D8047A0E4B9A
:102860001B5DC91A0BE010E0037A0B4C0C3CE35CD7
:102870008B4203D8037AE35CC91A00E005E0037ACF
:102880005B1C0372037A0C2BCFDB00BF037A5B1C4B
:1028900003724B1CC37130BDF0000020F0B503463D
:1028A00000240025587A00F5FA6240F2B2708242A4
:1028B00001DA0020F0BD40F2B2711CE00846CE17EC
:1028C00001EB9676B610A1EB86062EB9642691FB35
:1028D000F6F706FB171636B94FF4C87691FBF6F7F4
:1028E00006FB171616B94FF4B77601E040F26D16E5
:1028F0003444481C81B29142E0DB012121E01046C2
:10290000D61702EB9676B610A2EB86062EB9642691
:1029100092FBF6F706FB172636B94FF4C87692FB02
:10292000F6F706FB17260EB9012600E0002606EB97
:102930004606104F07EB86074E1EBE5D3444481C0A
:1029400081B2187A8842DADCD879401E04440A48F9
:1029500004FB00F55879C0EB4016C6EB002005EBF0
:1029600000151879C0EB001005EB800518780544B8
:1029700028469FE7E4000020805101007FB504460F
:10298000012601210807FEF745FE0120FEF70AFE99
:102990001320FFF7B7F8054644F2213085421AD1DB
:1029A0003749086014B90020FFF778FE0020FFF7D0
:1029B00001FAFFF7A9F90120FFF7FCF94FF4804075
:1029C000FEF78CFF4FF480002E4908600021684616
:1029D000FFF79CFE3DE041F2342085421AD12849A0
:1029E000086014B90020FFF759FE0020FFF7E2F954
:1029F000FFF78AF90120FFF7DDF94FF48040FEF779
:102A00006DFF4FF480001F49086000216846FFF702
:102A10007DFE1EE000201A49086000262046FFF7D0
:102A20003DFE01208DF807008DF806008DF80800A6
:102A300000208DF809008DF805008DF804008DF850
:102A400000000021684600F035F841F234200C49BE
:102A5000086000210C48FFF759FE0B4880790B49AC
:102A600008700948007A0A4908700748407A0949FD
:102A7000087016B9002004B070BD01480068FAE77C
:102A8000CC000020143C0140B0020020C80000200F
:102A9000C9000020CA0000200146122901DD0020E3
:102AA000704702488A0050F82200F9E75028004099
:102AB000704700007FB504460D46012D54D1E079E2
:102AC00000F00F00E179090901EB810100EB410001
:102AD000C0B28DF80700207A00F00F00217A0909B2
:102AE00001EB810100EB4100C0B28DF80800607A73
:102AF00000F00F00617A090901EB810100EB410050
:102B0000C0B28DF80900607900F00F006179090901
:102B100001EB810100EB4100C0B28DF80500207986
:102B200000F00F002179090901EB810100EB410060
:102B3000C0B28DF80400207800F00F002178090958
:102B400001EB810100EB4100C0B28DF80000A079DB
:102B500000F00F00A179090901EB810100EB4100B0
:102B6000C0B28DF8060014E0E0798DF80700207AF5
:102B70008DF80800607A8DF8090060798DF80500FD
:102B800020798DF8040020788DF80000A0798DF868
:102B900006009DF8091063294EDC9DF80810E9B382
:102BA0009DF808100C2947DC9DF80710B1B39DF87B
:102BB000091001F5FA60C11700EB91718910A0EBC3
:102BC000810149B99DF8091001F5FA61642291FB70
:102BD000F2F302FB131151B99DF8091001F5FA61E6
:102BE0004FF4C87291FBF2F302FB131109B90121F2
:102BF00000E0002101EB41012E4A02EB81029DF829
:102C00000810491E515C9DF80720914214DB9DF885
:102C10000510172910DC9DF8041000E00CE03B299A
:102C20000ADC9DF800103B2906DC9DF8061019B15E
:102C30009DF80610072902DD002004B070BD607900
:102C40001D4908702079487020788870E0791B4908
:102C50008870207A4870607AC870A0790870002067
:102C6000174908601F20486040F2FF30886008461E
:102C7000FEF716FF012D04D10F490120FEF7B6FF24
:102C800003E00D490020FEF7B1FF012D04D10B49EF
:102C90000120FEF747FF03E008490020FEF742FF4E
:102CA0000848006820B144F221311320FFF774F87E
:102CB0000120C2E7E4000020D0000020D400002062
:102CC000A4020020CC000020122800DD7047034A37
:102CD000830042F8231000BFF8E7000050280040AE
:102CE00010B50146002000222F4B1B6803F0005353
:102CF00033B101202C4B1B6843F080732A4C2360B6
:102D000045F25553294C23600B2902DB07236360EE
:102D100002E00323254C636009B9052239E001294B
:102D200001D10A2235E0022901D10F2231E0032925
:102D300001D11F222DE0042901D13D2229E00529DE
:102D400001D17B2225E0062901D1FF2221E00729BC
:102D500002D140F2FF121CE0082902D140F2FF32FA
:102D600017E0092902D140F2FF7212E00A2902D1CC
:102D700040F6FF720DE00B2902D140F2FF3208E06D
:102D80000C2902D140F2FF7203E00D2901D140F677
:102D9000FF72064B9A604AF6AA23044C23604CF655
:102DA000CC43236010BD0000743802400030004066
:102DB00010B5034B034A0449044807F096FB10BDC5
:102DC00015FD010840600240004C00402C18002016
:102DD00010B5034B034A0449044807F086FB10BDB5
:102DE00061FC01088864024000100140C41F0020FB
:102DF00010B5034B034A0449044807F076FB10BDA5
:102E000085FC01088860024000440040541B0020FB
:102E100001F40072B2F5007F00D100BFCA43028006
:102E2000704721B1828942F40052828104E0828994
:102E30004DF6FF731A40828170471AB1838A0B43A3
:102E4000838202E0838A8B438382704710B50446F5
:102E50003248844208D101211020FEF70BFC0021EA
:102E60001020FEF707FC57E02D48844209D10121CC
:102E70004804FEF7DFFB00214FF40030FEF7DAFBD9
:102E80004AE02848844209D101218804FEF7D2FB98
:102E900000214FF48020FEF7CDFB3DE02248844224
:102EA00009D10121C804FEF7C5FB00214FF4002021
:102EB000FEF7C0FB30E01D48844209D1012108051E
:102EC000FEF7B8FB00214FF48010FEF7B3FB23E0C0
:102ED0001748844208D101212020FEF7CBFB0021B6
:102EE0002020FEF7C7FB17E01248844209D10121D8
:102EF0008807FEF79FFB00214FF08040FEF79AFB0A
:102F00000AE00D48844207D101214005FEF792FBFB
:102F100000216005FEF78EFB10BD0000001001408F
:102F20000044004000480040004C00400050004079
:102F30000014014000780040007C00400246002060
:102F4000B1F5007F00D100BF13880B400BB1012009
:102F500000E00020704770B50246002400230025E1
:102F6000002040F66A16B14200D100BFC1F34215FD
:102F700001F01F03012606FA03F3012D02D1968901
:102F8000334006E0022D02D1168A334001E0968AD2
:102F900033400C12012606FA04F41688344013B1AB
:102FA0000CB1012000E0002070BDF0B50346002404
:102FB00000260025002040F66A17B94200D100BF64
:102FC0001846C1F3421401F01F06012707FA06F55F
:102FD000012C01D10C3004E0022C01D1103000E0B2
:102FE00014301AB107682F43076002E00768AF4347
:102FF0000760F0BD2DE9FF4705460E460024A146B7
:1030000000BFA046B08900B100BF2C8A24F4405410
:10301000F08804432C82AC8941F20C608443B08870
:1030200031890843718908430443AC81AC8A24F494
:103030004074B0890443AC826846FEF72BFB2048FD
:10304000854202D01F48854202D1DDF80C9001E094
:10305000DDF80890A88900F4004040B109EBC900F0
:1030600000EB091031684900B0FBF1F707E009EB0C
:10307000C90000EB091031688900B0FBF1F764204A
:10308000B7FBF0F004012009642101FB1078A88946
:1030900000F4004040B1322000EBC800B0FBF1F07A
:1030A00000F00700044308E0322000EB0810642120
:1030B000B0FBF1F000F00F0004432C81BDE8FF8766
:1030C000001001400014014000BFFEE703B4019866
:1030D0004100009850EAC12018BF04204A0D18BFD3
:1030E00040F0010040F2FF72B2EB515F08BF40F0C8
:1030F0000200012808BF052002B070474100080205
:1031000018BF04200A0E18BF40F001004FF07F42A4
:1031100032EA010108BF40F00200012808BF052083
:1031200070470146C1F3C750FF2801D00120704706
:103130000020FCE7002807DB00F01F02012191407E
:10314000024A430942F823107047000080E200E081
:10315000BFF34F8F0648006800F4E060054908435C
:10316000001D03490860BFF34F8F00BF00BFFDE79C
:103170000CED00E00000FA0510B5B94A2DED020B88
:103180002DED0C8B82B00F9921F000409FEDB6CB56
:1031900090422CDBA0F140530E9AA3F17F631A43B7
:1031A0000FD0B349884202DC16D10E98A0B19DED34
:1031B0000E0B02B0BDEC0C8B02B0BDE8104002F06B
:1031C00037BE0029C1BF9FEDAC0B02B0BDEC0C8B2C
:1031D00002B0C8BF10BD16E00120FDF77CFA02B0B6
:1031E000BDEC0C8B02B0BDE8104002F035BEA44A25
:1031F0009FEDA59B9FEDA6AB90425EDAA6499FEDA1
:10320000A8CB814208DBB0EE4C0AF0EE6C0A02B0AB
:10321000BDEC0C8B02B010BD9DED0E0B53EC102BD2
:1032200051EC100B0EF010FA41EC180B9E480621E1
:10323000B0EE480AF0EE680A784402F025FB53EC41
:10324000182B51EC100B0EF0FFF941EC1B0B9748BB
:10325000B0EE480AF0EE680A0421784402F014FB4C
:1032600053EC182B51EC100B0EF0EEF953EC192B1C
:103270000DF0D6FE41EC100B51EC1B0B53EC102B58
:103280000DF08AFF41EC100B53EC102B9DED0E0B53
:1032900051EC100B0EF0D8F953EC1A2B0EF00AFC7F
:1032A0009DED0E1B53EC112B0EF004FC53EC1C2B6C
:1032B0000EF000FC41EC100BA9E79FED7D8B9FED1C
:1032C0007EBB9DED0E0B002953EC192B51EC100B1E
:1032D00052DA0DF0A5FE53EC182B0EF0B5F941ECC7
:1032E000180B77480621B0EE480AF0EE680A7844D9
:1032F00002F0CAFA53EC182B51EC100B0EF0A4F9A3
:1033000041EC1D0B6F48B0EE480AF0EE680A04214C
:10331000784402F0B9FA53EC182B51EC100B0EF074
:1033200093F953EC192B0DF07BFE41EC190B51EC8A
:10333000180B0DF04DFA41EC180B53EC192B51EC16
:103340001D0B0DF029FF53EC182B0EF07DF953ECFB
:103350001A2B0EF087FC41EC100B51EC180B53ECC0
:10336000102B0DF05DFE53EC1B2B0EF06DF953ECA2
:103370001C2B0EF09FFB6DE00EF09CFB53EC182B0A
:103380000EF062F941EC180B0DF022FA41EC1A0B29
:1033900000208DED00AB00909DED000B51EC1A0B61
:1033A00053EC102B0DF03CFE9DED000B41EC1C0B83
:1033B00053EC102B51EC100B0EF046F953EC182B7C
:1033C0000EF078FB53EC1C2B0DF0E6FE41EC1C0BD1
:1033D0003D48B0EE480AF0EE680A0621784402F053
:1033E00053FA53EC182B51EC100B0EF02DF941EC65
:1033F0001D0B3648B0EE480AF0EE680A0421784406
:1034000002F042FA53EC182B51EC100B0EF01CF9A1
:1034100053EC192B0DF004FE41EC100B51EC1D0B7D
:1034200053EC102B0DF0B8FE53EC1A2B0EF00CF9E8
:1034300053EC1C2B0DF0F4FD41EC100B53EC102B56
:103440009DED000B51EC100B0DF0EAFD53EC1B2B26
:103450000EF0FAF841EC100BD9E600000000000075
:103460000000F03F00000000182D4454FB210940EB
:103470000000F07F000000000000000000000000DD
:103480000000E03F00000000000000000000F03FEE
:10349000075C143326A6913C0000603C000000004D
:1034A000182D4454FB21F93FDCEE0000EAEE000049
:1034B000000000000000E03F0000000000000040AD
:1034C00026EE000034EE000038ED000046ED00006E
:1034D00070B5C1482DED020B2DED0E8B82B0119D04
:1034E00025F000449FEDBEDB9FEDBFEB84423EDB49
:1034F000A4F140511098A1F17F6108430FD0BC485E
:10350000844202DC28D1109830B39DED100B02B03C
:10351000BDEC0E8B02B0BDE8704002F089BC9DEDA1
:10352000100B53EC1D2B51EC100B0EF08DF89DED94
:10353000100B41EC180B53EC1E2B51EC100B0EF042
:1035400083F853EC182B0DF06BFD41EC100B02B01F
:10355000BDEC0E8B02B070BD0120FDF7BCF802B0CF
:10356000BDEC0E8B02B0BDE8704002F075BCA14806
:103570009FEDA18B844256DA9DED100BB4F1795F7B
:103580000ADA51EC100BFFF7A1FD042808BF02F086
:1035900083FC9DED100BDAE753EC102B51EC100B74
:1035A0000EF052F841EC190B95480621B0EE490A8D
:1035B000F0EE690A784402F067F953EC192B51ECEC
:1035C000100B0EF041F841EC1A0B8E48B0EE490A90
:1035D000F0EE690A0421784402F056F953EC192BF5
:1035E00051EC100B0EF030F853EC182B0DF018FDC9
:1035F00041EC100B51EC1A0B53EC102B0DF0CCFDE1
:10360000CDE900019DED000B53EC102B9DED100B4F
:1036100051EC100B0EF018F89DED101B53EC112B14
:103620000DF0FEFCD2E09DED100B51EC100B06F0FE
:1036300085FE53EC182B0EF03DFA9FED730BCDE990
:10364000000153EC102B9DED000B51EC100B0DF015
:10365000FBFF41EC190B6E480621B0EE490AF0EE73
:10366000690A784402F010F953EC192B51EC100B55
:103670000DF0EAFF41EC1B0B6648B0EE490AF0EE94
:10368000690A0421784402F0FFF853EC192B51EC3D
:10369000100B0DF0D9FF53EC182B0DF0C1FC41ECD1
:1036A0001C0B51EC190B0DF093F841EC180B5A4818
:1036B0009FED5BABA04222DC53EC1C2B51EC1B0BAF
:1036C0000DF06AFDCDE900019DED000B51EC180BEA
:1036D00053EC102B0DF0B8FF53EC182B0DF0A0FCA1
:1036E00053EC1A2B0DF0B0FF53EC1D2B0EF0BAFA71
:1036F00053EC1E2B0EF0DEF941EC100B5FE08DED6C
:10370000008B002000909DED000B51EC180B53EC4A
:10371000102B0DF085FC9DED000B41EC1E0B53ECC6
:10372000102B51EC100B0DF08FFF53EC192B0EF0FA
:10373000C1F953EC1E2B0DF02FFD41EC190B53EC8E
:103740001C2B51EC1B0B0DF027FD41EC1B0B53EC1C
:103750001A2B51EC190B0DF077FF53EC1D2B0EF0CB
:10376000A9F941EC190B53EC1A2B51EC180B0DF085
:103770006BFF53EC1B2B0DF067FF53EC192B0EF076
:1037800071FA9DED000B41EC180B53EC1A2B51EC28
:10379000100B0DF059FF9FED249B53EC192B0EF0ED
:1037A00089F941EC100B51EC180B53EC102B0EF077
:1037B00059FA53EC192B0EF07DF941EC100B002D4A
:1037C0003FF7C5AE51EC100B0DF0ECFB41EC100BCC
:1037D000BDE60000000000000000F03F0000000017
:1037E000075C143326A6913C182D4454FB21F93F65
:1037F0000000F07F0000E03F000000000000F03F0C
:10380000B0EB0000BEEB0000000000000000E03F55
:1038100002EB000010EB00003333EF3F000000002C
:103820000000000000000040182D4454FB21E93F37
:1038300010EE100A10B510EE901A4FF0684202EB2D
:1038400040032DED028BB3F1654F3CBF02EB41020B
:10385000B2F1654F7CD200BFC0F3C753C1F3C7526A
:103860009A1A1B2A09DD10F0004F14BF9FED6E0A53
:103870009FED6E0ABDEC028B10BD12F11A0F1BDA20
:1038800011F0004F09D010F0004F0CBF9FED680AF7
:103890009FED680ABDEC028B10BD80EE208A18EE09
:1038A000100AFFF72BFC042808BF02F023FBB0EE40
:1038B000480ABDEC028B10BD4200B2EB410F37D974
:1038C00010F0004F19BFDFED5C1A9FED5C1ADFEDC1
:1038D0005C1A9FED5C1AB0EE602A0A46F1EE400ACF
:1038E00080F00041B0EE420A10460A1A5200B2F1CE
:1038F000807F34D2484010F0004FDFED532A9FED17
:10390000533A1DBFBEEE002A71EEE21A31EE431AA1
:10391000B6EE002A04BF71EEA21A31EE031AF0EEE1
:10392000402A42EE602A40EE020A82EEA02A18E007
:1039300011F0004F04BF9FED461AF0EE411AD4D0AB
:1039400010F0004F1CBFDFED431A9FED431A00E05B
:1039500026E004BFDFED411A9FED411AC5E780EE76
:10396000202A22EE020ADFED3F0ADFED3F2ABDECFE
:10397000028B40EE202ADFED3D0A40EE220ADFED09
:103980003C2A40EE202ADFED3B0A40EE220A22EEDE
:10399000000A00EE201A31EE020A30EE210A10BDB4
:1039A0004FF07F42B2EB400F28BFB2EB410F05D280
:1039B000BDEC028BBDE8104002F088BA40EA01037A
:1039C0005B0008BF41F0FF410BD0B2EB400F08BFD6
:1039D000B2EB410F08D120F0804000EE100A21F038
:1039E000804100EE901A37E7B2EB400F12BF5FEA5A
:1039F000410240F0FF4001F000413FF42DAF4A008A
:103A000092EA40033FF528AF002AACBF9FED1A1A97
:103A10009FED1A1A20EE010A60EE810A10EE100ADC
:103A200010EE901A18E70000DB0FC9BFDB0FC93F8B
:103A3000DB0F4940DB0F49C00000C9BF22AAFDB916
:103A40000000C93F22AAFD390060ED3EC30ACE370F
:103A500000000000000049C022AA7DBA00004940D1
:103A600022AA7D3A2DAD65BD8FB8D53D0FB511BEEB
:103A700061C84C3EA8AAAABE0000804F0000802F5B
:103A800010B52F499FED2C1B2DED020B84B005982E
:103A900020F000408842D8BF9DED040B2DDD294960
:103AA000884209D1049840B94FF00100FCF713FE99
:103AB00002F0D2F906B010BD05DB9DED040B02F05B
:103AC000B7F906B010BD68469DED040B01F008FC87
:103AD00010F0030004BF9DED021B9DED000B0CD008
:103AE00001280ED09DED021B9DED000B022817D082
:103AF000012001F045FF06B010BD01F00DFE06B03B
:103B000010BD9DED021B9DED000B012001F038FF63
:103B100051EC100B0DF046FA06B041EC100B10BD45
:103B200001F0FAFD51EC100B0DF03CFA06B041EC3F
:103B3000100B10BD0000000000000000000000009D
:103B4000FB21E93F0000F07F2DED020B019820F0F2
:103B5000004001909DED000B02B070470000000096
:103B60002DE9F0412DED020B9FED3D0B2DED028B6C
:103B70009FED3D8BDDE90254C4F30A50A0F2FF36FD
:103B8000142E37DA002E18DA53EC102B9DED020BB1
:103B900051EC100B0DF044FA53EC182B0DF0FAFE1B
:103BA00057D2002CA4BF0024254652DA24F000404E
:103BB000284318BF2E4C4CD01AE02E4820FA06F7A6
:103BC00004EA070028431FD053EC102B9DED020B95
:103BD00051EC100B0DF024FA53EC182B0DF0DAFE1B
:103BE00037D2002C03DA4FF48010F0400444BC4379
:103BF00000252EE0332E07DCA6F114004FF0FF3134
:103C000021FA00F73D4206D19DED020BBDEC028B7F
:103C100002B0BDE8F08153EC102B9DED020B51EC8E
:103C2000100B0DF047FF53EC182B0DF0B3FE10D224
:103C3000002C0DDA142E08BF641C09D0C6F1340024
:103C4000012101FA00F02844A84238BF641C05464F
:103C5000BD43CDE902549DED020BD7E70000000003
:103C60009C7500883CE4377E0000000000000000E6
:103C70000000F0BFFFFF0F0010B52DED040B86B064
:103C80009DED060B10EE100A10EE901A8DED000B54
:103C9000002818BF0120084320F00040C0F17F60D9
:103CA00000F1E040C00F21D19DED080B10EE101A7D
:103CB00010EE900A8DED000B002918BF012108437A
:103CC00020F00040C0F17F6000F1E040C00F0DD156
:103CD00029490798B1EB400F04BF0698002842D04D
:103CE0000998400004BF089800283CD09DED080BBF
:103CF00053EC102B9DED060B51EC100B0DF09CFDC1
:103D0000CDE902019DED020B40F2FF7110EE900A29
:103D10008DED000B31EA105021D00798039900F087
:103D2000004001F00041884219D09DED080B8DED57
:103D3000040B9DED020B8DED000B10EE900A059922
:103D400061F31E0005909DED041B9DED020B51ECEF
:103D5000110B53EC102B0DF0ADFECDE902019DEDE2
:103D6000020B0AB010BD0120FCF7B5FC0AB0BDE89B
:103D7000104002F071B800000000E0FF00000000F9
:103D80002DE9F04D2DED040B2DED0E8B96B0DDE9F8
:103D90002550279CDDF890A025F0004624F000482F
:103DA000BAF1000F14BF0121002101EB4502FC49CB
:103DB00053184A1093422AD3002814BF012300232A
:103DC00003EB44030B44F7498B4220D358EA00012C
:103DD0009FEDF59B76D0DFF8D8B35D4503D1BAF1FE
:103DE000000F05D188E0BAF1000F08BF002100D014
:103DF000012101EB450111F5001F08D8002814BF6F
:103E00000121002101EB440111F5001F0BD99DEDAB
:103E1000261B9DED240B16B0BDEC0E8B04B0BDE847
:103E2000F04D02F00FB80027002DBCBFE1498845D6
:103E300021DAE1498845A8BF02271CDAC3451ADC0C
:103E4000DE4901EB2851142908DDC1F1340220FAC2
:103E500002F101FA02F282420DD108E058B9C1F133
:103E6000140228FA02F101FA02F2424503D101F0EC
:103E70000101C1F1020756EA0A0124D1002C22DA1D
:103E8000002D18BF022F01D0012F0AD00220FCF70D
:103E900022FC16B0BDEC0E8B04B0BDE8F04D01F075
:103EA000AFBF0220FCF717FC01F0AAFF51EC100B8A
:103EB0000DF078F841EC100B16B0BDEC0E8B04B091
:103EC000BDE8F08D18E09FEDBEAB9FEDBF8B0028E5
:103ED00071D1B848804522D105F1804010F580109D
:103EE00008BFBAF1000F07D0B3450ADC002CA8BF09
:103EF0009DED260BE0DA0DE0B0EE490AF0EE690A1E
:103F0000DAE7002C06DA9DED260B51EC100B0DF0D4
:103F100049F86FE0AE48784490ED000BCCE7D84507
:103F20004DD1002C48DA2EB186423AD1BAF1000FB9
:103F300042D126E0BAF1000F13D00220FCF7CBFBF0
:103F400001F09AFF8DED020B9DED240B8DED000B22
:103F500010EE900A039961F31E0003909DED020B91
:103F6000AAE78DED02AB9DED240B1AEE901A10EE30
:103F7000900A8DED000B61F31E0003909DED020B86
:103F80009AE78DED028B9DED240B18EE901A10EE42
:103F9000900A8DED000B61F31E0003909DED020B66
:103FA0008AE709DA9DED240B51EC190B53EC102B29
:103FB0000DF0F2F81EE020E09DED240B7CE7864238
:103FC0001BDAB4F1804F0DD0A4F10050B0F1FF50D6
:103FD00013D1002D11DB9DED240B51EC100B0CF0D7
:103FE000F7FB07E09DED240B53EC102B51EC100B6D
:103FF00000F0C2BC41EC100B5EE79DED240B51ECD0
:10400000100B06F09BF9BAF1000FCDE90E0142D179
:104010009FED710B46B3A6F1E040B0F17F600CD08C
:104020005E4538D1002D00DAA7B3022F0CBF012066
:104030004FF0FF300DF0A1FADCE7002D01DD002C80
:104040000DDA002D01DD002C1FDB002D16DA002C0F
:1040500014DB012F08BF9FED620B3FF42DAFB0EED4
:104060004A0AF0EE6A0A27E7022F18BF002D0CD08B
:10407000012F0AD1002DFFF61FAF06E0002DB8BFBB
:10408000002C08DA012F3FF417AFB0EE480AF0EE2B
:10409000680A11E71BE0012000EBE57050EA070118
:1040A00015D0791EB0EE498AF0EE698A084308BF40
:1040B0009FED4D8B4E480025804570DD4D494E48A3
:1040C000884514DDB0420DDB002C19DB2FE0012008
:1040D000FCF701FB16B0BDEC0E8B04B0BDE8F04D53
:1040E00001F0BABEB34502DC002C09DC1FE08642B9
:1040F00002DA002C1BDA03E05E452BDD002C16DD16
:104100000220FCF7E8FA01F0B7FE8DED020B53EC4C
:104110001A2B51EC180B0DF097FACDE90001039919
:10412000019861F31E0003909DED020BC4E602208E
:10413000FCF7D1FA01F0B0FE10EE901A18EE900ADA
:104140008DED020B8DED008B61F31E0003909DED54
:10415000020BB1E69DED0E0B53EC192B51EC100B3D
:104160000DF080FD9FED260BCDE9080153EC102BDF
:104170009DED080B51EC100B0DF066FA9FED221B24
:1041800053EC112B0DF096FC9DED081B53EC112BFD
:104190000DF05AFA9FED1E1B53EC112B3CE08CE006
:1041A000FFFF1F00FFFF0F00000000000000F03FB6
:1041B0000000F03F0000F07F0000404301FCFFFFE3
:1041C000000000000000F07F000000000000000080
:1041D00096E40000000000000000000000000080E5
:1041E000000000000000F0FF000000000000F0BF31
:1041F0000000E0410000F043FFFFEF3F000000003F
:10420000000000000000D03F555555555555D53F8D
:10421000000000000000E03F0DF04CFC9DED080B9D
:1042200041EC1A0B53EC102B51EC100B0DF00CFA67
:1042300053EC1A2B0DF008FA41EC1A0B9FEDFE0B14
:1042400053EC102B9DED080B51EC100B0DF0FCF90D
:1042500041EC1B0B9FEDFA0B51EC1A0B53EC102B9E
:104260000DF0F2F941EC1A0B9FEDF70B53EC102B0C
:104270009DED080B51EC100B0DF0E6F953EC1A2BE9
:104280000DF0F0FC41EC1A0B51EC1B0B53EC1A2B0C
:104290000CF0C6FE0690CDE906519DED060B53ECE1
:1042A0001B2B51EC100B0DF0DDFC53EC1A2B0DF019
:1042B00001FC41EC100B00F0A1B90020B6F5801F05
:1042C0000EDA9FEDE30B53EC102B9DED0E0B51EC32
:1042D000100B0DF0B9F9CDE90E016FF034000E4668
:1042E00000EB2650A0F2FF37C6F31300DA4940F086
:1042F0007F6646F040568842D8BF002408DDD74983
:104300008142C8BF012403DC0024A6F580167F1C6F
:10431000D348784400EBC4000F9690ED00CB9DEDA0
:104320000E0B53EC1C2B51EC100B0DF09BFC9DED78
:104330000E0B41EC1B0B53EC1C2B51EC100B0CF037
:104340006FFE41EC100B51EC190B53EC102B0CF0E1
:1043500023FF41EC1D0B51EC1B0B53EC1D2B0DF0FF
:1043600073F941EC1A0BBF488DED10AB78441095F2
:1043700090ED000B4FF0005040EA660000EB8440E7
:104380008DED080B00F5002009909DED080B53EC16
:104390001C2B51EC100B0DF065FC9DED0E1B53EC2E
:1043A000112B0DF087FB41EC100B53EC102B9DED06
:1043B000100B51EC100B0DF047F99DED080B41EC83
:1043C0001C0B53EC102B9DED100B51EC100B0DF052
:1043D0003BF953EC1B2B0DF06DFB53EC1C2B0DF03C
:1043E00041FC53EC1D2B0DF02FF941EC1C0B53EC51
:1043F0001A2B51EC1A0B0DF027F941EC1B0B9A48C4
:104400000621B0EE4B0AF0EE6B0A784401F03CFA5C
:10441000B0EE401AF0EE601AB0EE41DAF0EE61DA7A
:1044200053EC1B2B51EC1B0B0DF00EF953EC1D2B19
:104430000DF00AF99DED100B41EC1B0B53EC1A2B00
:1044400051EC100B0CF0ECFD53EC1C2B0DF0FCF8B8
:1044500053EC1B2B0CF0E4FD9DED100B41EC1B0B02
:1044600053EC102B51EC100B0DF0EEF841EC1D0B42
:104470009FED7FEB53EC1E2B0CF0D2FD53EC1B2B6E
:104480000CF0CEFD0890CDE908519DED080B53ECE2
:104490001E2B51EC100B0DF0E5FB53EC1D2B0DF01A
:1044A000E1FB53EC1B2B0DF005FB9DED080B41ECE4
:1044B0001D0B53EC102B9DED100B51EC100B0DF060
:1044C000C3F841EC1B0B53EC1A2B51EC1D0B0DF0F8
:1044D000BBF89DED080B41EC1A0B53EC102B51EC83
:1044E0001C0B0DF0B1F853EC1A2B0CF099FD41ECBC
:1044F0001A0B51EC1B0B53EC1A2B0CF091FD0C908A
:10450000CDE90C519DED0C0B53EC1B2B51EC100B1A
:104510000DF0A8FB53EC1A2B0DF0CCFA41EC1B0B61
:104520009FED550B53EC102B9DED0C0B51EC100B2C
:104530000DF08AF841EC1A0B9FED510B51EC1B0B5F
:1045400053EC102B0DF080F841EC1B0B9FED4E0B44
:1045500053EC102B9DED0C0B51EC100B0DF074F87F
:1045600053EC1B2B0CF05CFD41EC100B48487844DD
:1045700000EBC40090ED001B51EC100B53EC112B21
:104580000CF04EFD41EC1B0B38460CF0F6FFCDE96C
:10459000080153EC1B2B51EC1A0B0CF041FD41ECC4
:1045A000100B3C48784400EBC40090ED00CB51EC7C
:1045B000100B53EC1C2B0CF033FD9DED081B53EC42
:1045C000112B0CF02DFD0690CDE906519DED080B49
:1045D00053EC102B9DED060B51EC100B0DF042FB34
:1045E00053EC1C2B0DF03EFB53EC1A2B0DF03AFB59
:1045F00053EC1B2B0DF05EFA41EC100B9DED261BCE
:1046000053EC102B8DED001B00959DED260B51EC0E
:10461000100B0DF019F89DED000B41EC1A0B53EC4B
:10462000102B9DED260B51EC100B0DF01BFB9DED9F
:10463000061B53EC112B2FE0000000604715F73FDD
:10464000FE822B654715F73F44DF5DF80BAE543E05
:1046500000000000000040438E9803007AB60B0073
:10466000A2DE000040E00000DADD000000000000F3
:104670000000000000000840000000E009C7EE3F15
:10468000FD033ADC09C7EE3FF5015B14E02F3EBEA7
:1046900066DC000020DC00000CF0D6FF53EC1A2B87
:1046A0000CF0BEFC9DED060B41EC1A0B53EC102BED
:1046B0009DED000B51EC100B0CF0C6FFCDE90C0189
:1046C0009DED0C0B51EC1A0B53EC102B0CF0A8FCCD
:1046D000CDE902010C46AA498C422FDB611A08433E
:1046E00018D19DED0C0B53EC102B9DED020B51ECF2
:1046F000100B0DF0B7FA41EC1B0B9FEDA30B51EC27
:104700001A0B53EC102B0CF08BFC53EC1B2B0DF005
:1047100041F92DD20220FBF7DEFF01F0ADFB10EED8
:10472000901A18EE900A8DED020B8DED008B61F35F
:104730001E0003909DED020BFFF7BEBB944A24F0D0
:104740000041914214D39349214408437FF4EFACD4
:104750009DED0C0B53EC102B9DED020B51EC100B4F
:104760000DF080FA53EC1A2B0DF014F97FF6DFAC44
:1047700024F000408849894A002601EB20518242FA
:104780002BDA481C4FF4801121FA00F02044844AAF
:10479000C0F30A517A44A1F2FF3192ED000B814A35
:1047A0008DED080BCA4020EA0202C0F3130040F46A
:1047B0008010C1F1140120FA01F60992002CB8BF53
:1047C00076429DED080B53EC102B9DED0C0B51EC3C
:1047D000100B0DF047FACDE90C019DED0C0B51ECDF
:1047E0001A0B53EC102B0CF01BFC9FED6F0B089079
:1047F000CDE9085153EC102B9DED080B51EC100B3B
:104800000CF022FF41EC1B0B9FED690B53EC102BBE
:104810009DED080B51EC100B0CF016FF9DED0C0BF1
:1048200041EC1C0B53EC102B9DED080B51EC100BC5
:104830000DF018FA53EC1A2B0DF03CF99FED5E1BAE
:1048400053EC112B0CF000FF53EC1C2B0CF0E8FB8D
:1048500041EC1A0B51EC1B0B53EC1A2B0CF0E0FB48
:10486000CDE902019DED020B53EC1B2B51EC100B1B
:104870000DF0F8F953EC1A2B0DF01CF99DED020B1D
:1048800041EC1A0B53EC102B51EC100B0CF0DCFE2E
:10489000CDE908014A489DED080B0521784400F058
:1048A000F3FF9DED081B51EC100B53EC112B0CF09A
:1048B000CBFE9DED021B53EC112B0DF0FBF8CDE967
:1048C00006019DED020B53EC1A2B51EC100B0CF072
:1048D000BBFE53EC1A2B0CF0A3FB9FED3B0B41EC02
:1048E0001A0B53EC102B9DED060B51EC100B0DF039
:1048F000B9F99DED060B41EC1B0B53EC102B9DED14
:10490000020B51EC100B0CF09FFE53EC1B2B0CF028
:1049100043FC53EC1A2B0DF0A5F99DED021B53EC53
:10492000112B0DF09FF953EC192B0DF0C3F8CDE9C5
:10493000020101EB065001150029C8BF039015DCE8
:104940009DED020B324651EC100B0DF022FBFEF7F1
:10495000BDFB042808BF01F09FFA32469DED020B13
:1049600051EC100B0DF015FBCDE902019DED020B92
:1049700051EC180B53EC102B0CF066FEFFF73ABB12
:104980000000904000000000FE822B654715973C18
:1049900000CC904000346F3F01FCFFFF0000E03F7F
:1049A00018DC0000FFFF0F0000000000432EE63F70
:1049B000396CA80C615C20BEEF39FAFE422EE63F4E
:1049C00078D9000000000000000000000000004056
:1049D00010B510EE100A2DED068BB7EE001A10EE92
:1049E000901AB0EE418A0022A0F5000CDFEDFE9A8D
:1049F0004FF00073BCF1FE4F4FF07F4403EB410CCE
:104A000080F0B481BCF1804FC0F02082F7490144AE
:104A10009FEDF73AB1F5005F40F2D48200F58021B6
:104A2000CB0C03F00F0101EE901AC3F307137F3B89
:104A3000A0EBC350B8EEE12A00EE100A1A44DFEDF5
:104A4000ED2AF0EE411A42EE221AF0EE613A70EED3
:104A5000232A30EE632A12EE900A00F500606FF30D
:104A60000B0001EE900A73EEE13A33EE804AC1EE9C
:104A7000223A22EE230A10EE100A00F500606FF3CE
:104A80000B0000EE100A00EE612A00EE442A62EEEE
:104A9000232A70EE221A21EEA12ADFEDD73A02EE88
:104AA000233A23EE023A20EE012A22EE811A03EE87
:104AB000211A32EE010A10EE100A00F500606FF3C1
:104AC0000B0000EE100A72EE401A31EE812A9FEDC3
:104AD000CB1A60EE011A9FEDCA1A20EE011A9FED63
:104AE000C90A02EE001A31EE810A10EE100A00F532
:104AF00000606FF30B0000EE100AC34871EEC01A9D
:104B000031EE812A784400EBC10090ED003AD0EDFF
:104B1000011A100101EE100AF8EEC12A32EE211A34
:104B200031EE001A31EE031A31EE221A11EE100A9C
:104B300000F500606FF30B0009EE100A39EE621AFF
:104B400031EE431A31EE400A30EE610A32EE40AAED
:104B500010EE900A002100F500606FF30B0008EEE4
:104B6000900A084670EEE8AA4FF0000029EE280AE5
:104B700000F00C01F0EEC00A10EE900AB0F18B4F7D
:104B80000DDD10EE900AB4EB400F08D310EE100AC2
:104B90004FF08B4262F31E0008EE900A13E069EEBC
:104BA0002A0A38EEAA1A4AEE010A30EE201A11EE4D
:104BB000100A00F500606FF30B0008EE900A30EE6B
:104BC000680A70EE209A0C204FF0000038EEA90A17
:104BD000B5EEC00AF1EE10FA34BFFEEE000AF6EEB2
:104BE000000A30EE800ABDEEC00A10EE100A011174
:104BF00000EE101AF8EEC00A00EE100AB8EEC00A75
:104C000038EEC00A30EE290ADFED801A9FED801AD7
:104C100000EE211ADFED7F1A7F4900F00F0040EE11
:104C2000011A21EE800A794401EB800191ED001A0E
:104C30007A49794401EB8001D1ED001A784901EEFF
:104C4000801A794401EB8000764990ED000A31EE3C
:104C5000001AB0EEE00A10EE100A884215DA10EEE3
:104C6000100AB4EB400F10D39FED6F0A30EE800AAC
:104C7000DFED6E0A20EE200A68EE010ABDEC068B1D
:104C8000BCEEC00A20EE200A10BD10EE100A6849E2
:104C9000884243DA10EE100AB4EB400F3ED3BDEE6B
:104CA000E00A68EE010A10EE100A00EBD072511013
:104CB000C90501F17E5100EE101AA0EB6200C0059B
:104CC00060EE200A00F17E5000EE100A60EE808A4D
:104CD00018EE900AB4EB400F0FD10220FBF7FBFC5B
:104CE00001F000F910EE101A18EE100ABDEC068B58
:104CF00061F31E0000EE100A10BD18EE900A40008D
:104D000011D018EE900AFEF7F9F9042808BF01F057
:104D1000F1F8B0EE680ABDEC068B10BDF5EEC00AE6
:104D2000F1EE10FA0FD20220FBF7D5FC01F0E2F809
:104D300010EE101A18EE100ABDEC068B61F31E007F
:104D400000EE100A10BD0220FBF7C5FC01F0CAF806
:104D500010EE101AB0EE480A10EE100ABDEC068BE9
:104D600061F31E0000EE100A10BD00BFBCF1804FC1
:104D70006CD300BF00F1FF43B3F1FE4F24D200BF5C
:104D8000B0EEC00A10EE100AC1F3C7537F2B0DDB43
:104D9000972BBFF63BAEC3F196034FF0010C0CFA14
:104DA00003F3A3F1010C1CEA010F08D00120FBF76B
:104DB00092FCBDEC068BBDE8104001F08BB80B42B5
:104DC00018BFBFEE008A21E643001CBF4FF080737E
:104DD000B3EB400F34D96FF01A02DFED161A20EE54
:104DE000210A10EE100A27E000000000001080C029
:104DF000ABAAAA3E0000803D7EE24C3E00B03842A5
:104E0000D49AB8BB3BAA384238D70000FC59633764
:104E1000C9FF753A1872313DD6D600000AD7000096
:104E20007AD600000000FC420000FE420000004B69
:104E3000000040430000004D10F0004FA0D1E5E518
:104E4000A0F50003B3F1FE4F21D2DFE503EB4103F0
:104E5000B3F1007F11D3F5EEC00AF1EE10FA05D1DF
:104E6000430018BFB4EB400F76D883E701F0004150
:104E700041F0FC5100EE901A7CE7B3F1807F06D23E
:104E800010EE903AA3F5000300EE903A72E720F09E
:104E900000426FF0FF4C604C02EB0C03A34210D3B6
:104EA00021F000439C44A4450BD3B0F17E5F18BFB2
:104EB0005FEA410C50D0B2F1FF4F98BFB3F1FF4F02
:104EC00005D9BDEC068BBDE8104000F0FFBFB0F186
:104ED000FF4F0FD0C1F3C7527F2A09DB972A11DA9F
:104EE000C2F19602012303FA02F2531E0B4205D0CF
:104EF000002208E011F0004F55D128E00A4218BF07
:104F0000012200D1022210F5000F13D028B3B0F116
:104F1000004F26D010F1814F4FD04FF0FE42B2EB40
:104F2000400F94BF01200020012202EBE171884272
:104F300039D10CE011F0004F02D0012A38D032E014
:104F4000012A02BF9FED350ABDEC068B10BD9FED17
:104F5000340ABDEC068B10BD2FE011F0004F0CD1D0
:104F600021E0B1F1FF4F1ED011F5000F05D011F077
:104F7000004F15D00AB1012A08D00220FBF7ABFB85
:104F8000BDEC068BBDE8104000F096BF0220FBF799
:104F9000A2FB00F091FFBDEC068BB1EE400A10BD04
:104FA0000AB1012A04D0B0EE690ABDEC068B10BD2F
:104FB000BDEC068B9FED1B0A10BDBDEC068BB7EE5A
:104FC000000A10BD30EE410AB5EE001A9FED172A17
:104FD00000EE413AB6EE001A60EE001A00EE431AF7
:104FE00061EEC11A9FED101A20EE011A20EE020A9E
:104FF0009FED0F2A01EE820A71EE001A11EE900A5F
:1050000000F500606FF30B0009EE100A31EE491A4B
:1050100031EE00AA9CE50000FFFF3F00000080FF8A
:105020000000807F0000008000B0B841D49A38BBF7
:105030003BAAB8410000000010B52DED020B2DED8C
:10504000088B84B09DED0C0B51EC100B0CF0D8FCD0
:1050500041EC180B9DED0C0B53EC182B51EC100B85
:105060000CF000FE41EC190B0D989FED290B10F090
:10507000004F53EC102B51EC190B9FED21AB9FED22
:1050800022BB0ED00CF0A4FA0ED953EC1B2B51EC22
:10509000190B0CF07FFC1CD214E000BF41EC180B84
:1050A00017E00CF095FA06D253EC1A2B51EC180BC2
:1050B0000CF0D8FDF2E753EC1B2B51EC190B0CF064
:1050C00069FC06D853EC1A2B51EC180B0BF0A8FF17
:1050D000E4E78DED028B9DED0C0B18EE901A10EEAF
:1050E000900A8DED000B61F31E0003909DED020B05
:1050F00004B0BDEC088B02B010BD00000000000041
:10510000000000000000F03F000000000000E03F51
:10511000000000000000E0BF10B52F499FED2C1BE0
:105120002DED020B84B0059820F000408842DCBFD2
:1051300000209DED040B32DD2849884209D10498F6
:1051400040B94FF00100FBF7C6FA00F085FE06B04B
:1051500010BD05DB9DED040B00F06AFE06B010BD2E
:1051600068469DED040B00F0BBF810F0030011D071
:10517000012818D09DED021B9DED000B02281AD0CE
:1051800000F0CAFA51EC100B0BF00CFF06B041EC2A
:10519000100B10BD9DED021B9DED000B012000F0DA
:1051A000EFFB06B010BD9DED021B9DED000B00F066
:1051B000B3FA06B010BD012000F0E2FB51EC100B79
:1051C0000BF0F0FE06B041EC100B10BD000000002B
:1051D0000000000000000000FB21E93F0000F07F1C
:1051E00000B52DED048BB0EE409AF0EE609A83B0DE
:1051F00051EC190B0CF06AFC41EC180B18EE100A7C
:1052000018EE901A8DED008B002818BF012008437E
:1052100020F00040C0F17F6000F1E040C00F14D0EA
:1052200019EE101A19EE900A8DED009B002918BF97
:105230000121084320F00040C0F17F6000F1E04010
:10524000C00F04BF0120FBF746FAB0EE480A03B0D6
:10525000F0EE680ABDEC048B00BD00000000000009
:1052600010B51D499FED1A1B2DED020B84B005985A
:1052700020F000408842DCBF01209DED040B21DDC1
:105280001649884209D1049840B94FF00100FBF754
:1052900022FA00F0E1FD06B010BD05DB9DED040B28
:1052A00000F0C6FD06B010BD68469DED040B00F091
:1052B00017F800F001000121A1EB40009DED021B59
:1052C0009DED000B00F0F4FB06B010BD00000000E7
:1052D0000000000000000000FB21E93F0000F07F1B
:1052E0002DE9F14F04462DED020B2DED088B8AB010
:1052F0009FEDE70B80ED020B139EE74826F000457B
:1053000085420ADC9DED120B002084ED000B0AB0F3
:10531000BDEC088B03B0BDE8F08FE0489FEDE0AB3B
:105320009FEDE1BBA84247DDE14F9FEDE39B9FED81
:10533000E48B9DED120B53EC1A2B51EC100B002E4D
:105340001CDD0CF08FFC41EC100BBD4208D053EC7F
:105350001B2B51EC100B0CF085FCC4E900010BE099
:1053600053EC192B51EC100B0CF07CFC53EC182B6C
:105370000CF078FCC4E900010120C8E70BF050FEF6
:1053800041EC100BBD4208D053EC1B2B51EC100B21
:105390000BF046FEC4E900010BE053EC192B51EC75
:1053A000100B0BF03DFE53EC182B0BF039FEC4E94B
:1053B00000014FF0FF30AAE7C348A84279DB9DED1A
:1053C000120B51EC100B04F0B9FF41EC180B9FEDE0
:1053D000C00B53EC102B0CF037F99FEDBF1B53ECB7
:1053E000112B0BF01DFE0CF06BF807460CF0C5F806
:1053F00041EC190B53EC1A2B0CF026F953EC182B3B
:105400000CF058FB41EC180B53EC1B2B51EC190B17
:105410000CF01AF9DFF8C8A241EC100B4FEA15584E
:105420000125FA4453EC102B51EC180B0CF01AFC2C
:10543000032DC4E900013DD0C1F30A5005EB45112D
:10544000A8EB00001139814234DA0AEB051BB0EEFB
:1054500048AA9BED000BF0EE68AA53EC102B51EC20
:10546000190B0CF0F1F841EC1B0B51EC1A0B53EC3F
:105470001B2B0CF0F7FB41EC180B51EC1A0B53EC07
:10548000182B0CF0EFFB53EC1B2B0CF0EBFB9BED04
:10549000020B41EC1A0B53EC102B51EC190B0CF0D6
:1054A000D3F853EC1A2B0CF0DDFB41EC100B6D1C08
:1054B000B8E70EE0002EA8BF3846BFF628AF94ED3F
:1054C000000B51EC100B0BF06DFDC4E900017842AC
:1054D0001DE7C6F3130040F4801EC6F30A50A0F285
:1054E000F530471100F01F05C5F12000DDF848B088
:1054F00008900020069007900520EC467949002D81
:1055000007EB0002794408BF51F8221009D051F886
:10551000223001EB8201AB404A68089922FA01F17E
:105520001943A1FB0E26A1FB0B131A449A4234BF68
:105530000123002303EB06080CEB8003D3E901A64B
:105540000E448E4234BF0121002192448A4411B19D
:10555000924502D903E0924501D2012100E00021E9
:10556000C3E901A641444CF82010011EA0F101003E
:10557000C4DC029800F10050850F0298DDE9036752
:105580008000DDF814800BF0F8FF41EC1A0B304678
:105590000CF00AF89FED541B53EC112B0CF054F84F
:1055A00041EC1B0B38460BF0FFFF9FED511B53ECFA
:1055B000112B0CF049F841EC180B40460BF0F4FFAE
:1055C0009FED4D1B53EC112B0CF03EF841EC190BE9
:1055D00051EC180B53EC192B0BF022FD53EC1B2B49
:1055E0000BF01EFD53EC1A2B0BF01AFDCDE9080150
:1055F000002008909DED080B53EC1A2B51EC100B7A
:105600000CF030FB53EC1B2B0CF02CFB53EC182B49
:105610000CF028FB53EC192B0CF04CFA9FED381BC7
:1056200053EC112B0CF010F89FED370B41EC180BDD
:1056300053EC102B9DED080B51EC100B0CF004F803
:1056400053EC182B0BF0ECFC9FED310B41EC180BDD
:1056500053EC102B9DED080B51EC100B0BF0F4FFED
:1056600053EC182B0BF0DCFC41EC100B139810F0F2
:10567000004F06D06D4251EC100B0BF093FC41EC47
:10568000100B284684ED000B41E6000000000000EE
:105690000000000000000000FB21E93F7CD902402F
:1056A00000004054FB21F93F3163621A61B4D03DE0
:1056B000FB21F93F000000000000601A61B4D03DFA
:1056C0007370032E8A19A33BFB21394100000000AF
:1056D00083C8C96D305FE43F000000000000E03F78
:1056E00092CF0000E0CE0000000000000000103E5D
:1056F000000000000000103C000000000000103A14
:10570000182D4454FB21F93D3326A611460B113CBC
:1057100000000054FB21F93D10B52DED040B2DEDDB
:10572000088B82B0B0EE419AF0EE619A0B9820F0AF
:1057300000449FED4BABB4F1795F11DA9DED0A0B9C
:1057400051EC100B0BF0BCFE002801BFB0EE4A0A72
:10575000F0EE6A0A02B0BDEC088B04BF04B010BDC5
:105760009DED0A0B53EC102B51EC100B0BF06CFF62
:1057700041EC180B3C480621B0EE480AF0EE680AEE
:10578000784400F081F853EC182B51EC100B0BF01F
:105790005BFF9DED0A0B41EC1B0B53EC192B51ECFD
:1057A000100B0BF051FF41EC190B53EC1B2B51EC80
:1057B000180B0BF049FF53EC192B0CF053FA9FED2B
:1057C0002C0B41EC190B53EC102B51EC180B0BF07C
:1057D0003BFF41EC100B2848844210DA53EC192BA4
:1057E00051EC100B0CF03EFA53EC1A2B0CF062F952
:1057F00041EC100B02B0BDEC088B04B010BD1F488B
:10580000A042BCBF9FED1E1B8DED001B06DBA4F567
:1058100000100190002000909DED001B51EC100B3A
:1058200053EC112B0CF01EFA9DED000B41EC180B04
:1058300053EC102B51EC1A0B0CF014FA41EC1A0B30
:1058400053EC192B51EC180B0CF00CFA53EC1A2BEF
:105850000CF030F941EC100BCCE700000000000028
:10586000000000000000F03FFCCB00000000000042
:10587000000000000000E03F3333D33F0000E93F69
:10588000000000000000D23F70B504462DED028BF1
:105890004D1E00EBC500B0EE408AF0EE608A90ED40
:1058A000000B35F0060017D053EC182B51EC100B01
:1058B0000BF0CAFE41EC100B6D1E04EBC50090ED21
:1058C000001B51EC100B53EC112B0BF0A9FB41EC1E
:1058D000100B35F00600E7D1022D36D0042D1CD078
:1058E000062D1CBFBDEC028B70BD53EC182B51EC88
:1058F000100B0BF0A9FE94ED0A1B53EC112B0BF0CF
:105900008FFB53EC182B0BF09FFE94ED081B53EC10
:10591000112B0BF085FB41EC100B53EC182B51ECC9
:10592000100B0BF091FE94ED061B53EC112B0BF0BA
:1059300077FB53EC182B0BF087FE94ED040B53EC24
:10594000102B0BF06DFB41EC100B53EC182B51ECB2
:10595000100B0BF079FE94ED021B53EC112B0BF0A6
:105960005FFB53EC182B0BF06FFE94ED001B53EC18
:10597000112B0BF055FBBDEC028B41EC100B70BDF5
:1059800031B504462DED040B2DED0A8BB0EE41BA76
:10599000F0EE61BA0B989DED0A0B20F00040B0F1DB
:1059A000795F0DDA51EC100BFDF790FB042808BF6E
:1059B00000F072FA9DED0A0BBDEC0A8B05B030BD0C
:1059C00053EC102B51EC100B0BF03EFE41EC180B7E
:1059D0009DED0A0B53EC182B51EC100B0BF034FE21
:1059E00041EC190B2C48B0EE480AF0EE680A05218C
:1059F0007844FFF749FF9FED2ACBB0EE40AAF0EEC6
:105A000060AA9CB353EC1C2B51EC190B0BF01CFE41
:105A100041EC1C0B53EC1A2B51EC190B0BF014FE40
:105A20009FED210B41EC190B53EC102B51EC1B0B90
:105A30000BF00AFE53EC192B0CF014F953EC182B55
:105A40000BF002FE53EC1B2B0CF00CF953EC1C2B4F
:105A50000CF008F99DED0A1B53EC112B0CF02AF801
:105A6000BDEC0A8B05B041EC100B30BDFFE753ECE9
:105A70001A2B51EC180B0BF0E7FD53EC1C2B0BF021
:105A8000CFFA53EC192B0BF0DFFD9DED0A1B53EC05
:105A9000112B0BF0C5FAE3E78CCA000000000000F0
:105AA000495555555555C5BF000000000000E03F61
:105AB000F1B506462DED040BBD482DED0C8B8AB0DB
:105AC000B0EE418AF0EE618A179D25F000449FED0B
:105AD000BABB9FEDBBCB844208DA9DED160B51ECAF
