:020000040801F1
:10000000702A00208D020108C52E0108452C010828
:10001000C12E010885230108074A010800000000DD
:10002000000000000000000000000000813701080F
:100030007527010800000000612F010871380108D0
:10004000A7020108A7020108A702010889360108D2
:10005000A7020108A7020108A7020108A7020108D8
:10006000A7020108A7020108A7020108A7020108C8
:10007000A702010889230108A7020108D523010866
:10008000A702010811240108A7020108A70201081C
:10009000A7020108A7020108A7020108A702010898
:1000A000A7020108A7020108A7020108A702010888
:1000B000A70201089D390108B53A0108A702010805
:1000C000A7020108A7020108A7020108A702010868
:1000D000A702010825460108614601089D4601085E
:1000E000A70201081D320108A7020108A7020108A2
:1000F000A7020108A7020108A7020108A702010838
:10010000A7020108A7020108A7020108A702010827
:100110004945010885450108A7020108D13A0108AF
:10012000A7020108A7020108A7020108A702010807
:10013000A7020108A7020108A7020108A7020108F7
:10014000A7020108A7020108A7020108A7020108E7
:10015000A7020108A70201084D240108A70201080F
:10016000A7020108A7020108A7020108A7020108C7
:10017000A7020108A7020108A7020108A7020108B7
:10018000A7020108A702010800F002F800F06EF8CB
:100190000AA090E8000C82448344AAF10107DA45E2
:1001A00001D100F063F8AFF2090EBAE80F0013F0C6
:1001B000010F18BFFB1A43F001031847883A0100EA
:1001C000A83A01000A444FF0000C10F8013B13F06C
:1001D000070408BF10F8014B1D1108BF10F8015BA0
:1001E000641E05D010F8016B641E01F8016BF9D193
:1001F00013F0080F1EBF10F8014BAD1C0C1B09D1EA
:100200006D1E58BF01F801CBFAD505E014F8016B5B
:1002100001F8016B6D1EF9D59142D6D370470000ED
:100220000023002400250026103A28BF78C1FBD8FF
:10023000520728BF30C148BF0B6070471FB512F08E
:100240005CFC9DE8030000F0A5FB01F065F90400EB
:100250000020002111F0AEFC401C60600020002155
:1002600011F092FCE0601FBD10B510BD00F098FECB
:100270001146FFF7E3FF0DF0F7FF01F011F903B4AA
:10028000FFF7F2FF03BC01F041F900000948804785
:1002900009480047FEE7FEE7FEE7FEE7FEE7FEE768
:1002A000FEE7FEE7FEE7FEE704480549054A064B80
:1002B00070470000353901088901010870200020CD
:1002C000702A0020702200207022002070B506469F
:1002D00000F044FB056806F10B0020F00704B4426F
:1002E0009CBF002070BD2B466A68BAB11068A0425E
:1002F00010D304F1080188423CBF5068586007D30E
:100300005168101941601168091B01605860146040
:10031000101D70BD13465268002AE7D121462846B9
:1003200000F024FB0028DED170BD70B50446051F27
:1003300000F014FB0068002C14BF446870BD002C52
:1003400018BFAC423CBF20466468F8D301680A1865
:10035000AA4218BF456003D12A68054611440160CE
:1003600028684119A1421CBF6C6070BD616869605A
:1003700021680844286070BD53EA020C00F06980CF
:100380002DE9F04B4FF00006002B1FBFB3FA83F5A9
:1003900003FA05F424FA05F65E4012BF1643B2FADA
:1003A00082F502FA05F4C5F120051EBF22FA05FC0C
:1003B00044EA0C04203556EA044C4FEA144418BFB2
:1003C000641C4FF000084FF00009904271EB030CE1
:1003D00039D3002919BFB1FA81F701FA07F6B0FA4B
:1003E00080F700FA07F6C7F120071EBF20FA07FCC6
:1003F00046EA0C062037B6FBF4FCA7EB0507103FD6
:1004000007F01F0BCBF120060CFA0BFB2CFA06F6BB
:1004100044BFB3460026202FA4BF5E464FF0000B1A
:100420005BEA060C08BF4FF0010B19EB0B09ABFBA5
:10043000027C48EB0608C01B06FB02CC0BFB03CC7E
:1004400071EB0C01C1E70B46024641464846BDE848
:10045000F08B13B54FF000004FF00001AFF30080B8
:10046000BDE81C407047B2F120030AD5C2F1200359
:1004700001FA02F120FA03F300FA02F041EA030163
:10048000704700FA03F14FF0000070470FB400B559
:100490008DB010A9099000910B904FF0FF300A9099
:1004A00000200C90064878440690064878446A4636
:1004B00007900F9909A800F0C3FA0DB05DF814FB7E
:1004C000B7050000CF0500002DE9FF5F1D464FF086
:1004D000FF3B91464FF000085F46D5E90146A96908
:1004E00001987F1C8847296A824688470028F6D1F0
:1004F000BAF1FF3F0CD0002E24F4C06419DD600671
:1005000014D5BAF12B0F09D0BAF12D0F0ED103E09B
:10051000584604B0BDE8F09F44F48064A96901988E
:100520007F1C8847761E8246002E02DDBAF1300F0E
:1005300003D0B9F1000F26D032E0A969761E0198E8
:100540007F1C44F400748847002E824605DDBAF112
:10055000780F06D0BAF1580F03D0B9F1000F10D0C0
:100560001EE0B9F1000F02D0B9F1100F18D1A9693E
:10057000761E01987F1C24F4007488478246102060
:1005800002E0082000E00A20814609E0A96908FB92
:100590000908761E01987F1C44F40074884782463F
:1005A000002E05DD4946504600F035FA0028EDDA08
:1005B000E96901988847A00502D46FF00100A8E717
:1005C000E00725D1600613D5600502D5C8F100000B
:1005D00000E0404629680A1D2A600968220501D505
:1005E000087015E0220701D5088011E008600FE0CF
:1005F0002868011D29600068210502D580F8008067
:1006000006E0210702D5A0F8008001E0C0F80080D4
:1006100038467EE7014A00F095BA0000F403002056
:1006200040EA0103024630B59B0710D14FF0013478
:1006300000E008C208C91D1B9D4315EAC41FF8D07D
:1006400013F0FF0102F8011B0DD01B0AF8E711F8A7
:10065000013B002B02F8013B05D011F8013B002BB8
:1006600002F8013BF3D130BD40EA010370B59B07AE
:100670002ED14FF00136042A2AD308C810C99D1B79
:100680009D43121F15EAC61517D0D8B2E1B2401A21
:1006900050EA056110D198B2A1B2401A50EA054162
:1006A0000AD123F07F4024F07F41401A50EA05210F
:1006B00002D1180EA0EB146070BDA342DBD018BAB3
:1006C00021BA884201D9012070BD4FF0FF3070BDC2
:1006D0000AB9002070BD10F8013B11F8014B63B15D
:1006E000A3420AD1521E08D010F8013B11F8014B69
:1006F0001BB1A34201D1521EEDD1181B70BD032ABC
:1007000040F2308010F0030C00F0158011F8013B2E
:10071000BCF1020F624498BF11F801CB00F8013B15
:1007200038BF11F8013BA2F1040298BF00F801CBD9
:1007300038BF00F8013B11F0030300F02580083AB0
:10074000C0F0088051F8043B083A51F804CBA0E807
:100750000810F5E7121D5CBF51F8043B40F8043B5C
:10076000AFF30080D20724BF11F8013B11F801CB91
:1007700048BF11F8012B24BF00F8013B00F801CB62
:1007800048BF00F8012B704710B5203AC0F00B802D
:10079000B1E81850203AA0E81850B1E81850A0E885
:1007A0001850BFF4F5AF5FEA027C24BFB1E81850DF
:1007B000A0E8185044BF18C918C0BDE810405FEA4F
:1007C000827C24BF51F8043B40F8043B08BF7047CB
:1007D000D20728BF31F8023B48BF11F8012B28BFD0
:1007E00020F8023B48BF00F8012B70474FF0000291
:1007F0000429C0F0128010F0030C00F01B80CCF133
:10080000040CBCF1020F18BF00F8012BA8BF20F8A0
:10081000022BA1EB0C0100F00DB85FEAC17C24BFF4
:1008200000F8012B00F8012B48BF00F8012B70479E
:100830004FF0000200B5134694469646203922BF79
:10084000A0E80C50A0E80C50B1F12001BFF4F7AFC4
:10085000090728BFA0E80C5048BF0CC05DF804EBA6
:10086000890028BF40F8042B08BF704748BF20F814
:10087000022B11F0804F18BF00F8012B704710B504
:10088000044610F0030F08BF11F0030F40F015806D
:100890004FF0013E121FC0F20E8051F8043BA3EB53
:1008A0000E0C2CEA030C1CEACE1C08BF40F8043BDB
:1008B000F0D0A1F1040102F10402521E08DB11F88C
:1008C000013B002B00F8013BF7D11146FFF78EFFEB
:1008D000204610BD4FF0013C50F8042B51F8043B6A
:1008E0009A4221D1A2EB0C03934313EACC1317D104
:1008F00050F8042B51F8043B9A4215D1A2EB0C039B
:10090000934313EACC130BD150F8042B51F8043B5A
:100910009A4209D1A2EB0C03934313EACC13DBD028
:100920004FF00000704700BFD01A01BAB1FA81F150
:1009300001F0180122FA01F0CB40C1F12001DBB235
:10094000C0B2C01A2CFA01F3D11A914311EAC311B3
:10095000E6D1704770477047704700000048704705
:1009600018200020704770477047704738B504461C
:100970000A4600206946AFF30080002808BF38BD52
:1009800002460099204600F007F9012038BD0120F9
:1009900000F0E0BAF8B5AFF30080054600200C4641
:1009A000102000BF0646A819A0420DD9324669465C
:1009B0000020AFF30080070008BF00F0CBFA0098DA
:1009C000A04218BF0546C419FFF7C8FF05600746D7
:1009D000F01D20F007004619284600F00AF8B4423E
:1009E00008BFF8BDA21B31463868BDE8F84000F0EA
:1009F000D3B800210160C0E9011070471020704792
:100A000010B500F0C5F8006810BD10B5044600F040
:100A1000BFF8046010BD3A2800D2303820F0200220
:100A2000412A01D3A2F13700884201D34FF0FF30B1
:100A3000704700000268114413780160184670473F
:100A4000D16005497944516104497944116200211A
:100A50001161114600F0C4B8EDFFFFFF7F010000F7
:100A6000426842B1016811F8013B23B1521EC0E94E
:100A70000012184670470121C160881E7047426805
:100A80005AB1C368016843B983688B4205D0491ED7
:100A9000521CC0E90012002070474FF0FF30704731
:100AA0000FB4002300B589B00CA900910B99CB605D
:100AB000214B7B440693214B7B44079304236FF027
:100AC0000042CDE901321E4A7A446B460892024642
:100AD000002012F07CF809B05DF814FB70B50646F2
:100AE0004FF0FF3015460C46324686B00091CDE9F6
:100AF000010169460020049004A8FFF7D1FF0246D7
:100B00000498211825B108B1084600E02046286065
:100B1000049800280DD0002A02DD0098884208D0F1
:100B20003246081B69460094CDE9010404A8FFF78A
:100B3000B7FF06B070BD0000ABFFFFFFC3FFFFFFB4
:100B4000010100002DE9F04115460E46040002D1D6
:100B50002C6804B90BA4204600F013FA0444207852
:100B600070B127463146384600F0FBF9044420783E
:100B700010B1002004F8010B38462C60BDE8F0816C
:100B80000027F9E70000000000487047102000200F
:100B90000048704710200020034640688C4600281B
:100BA00018BF88423CBF03464068F8D31868184411
:100BB000884207D00CF1030020F00700001D411A05
:100BC000521A0146081D0A60FFF7AFBB10B5044674
:100BD00000F00CFA0068005D00F0010010BD00009C
:100BE0002DE9F34F4FF0000A0C4656468DB0012018
:100BF0000C9001F10C000B9062690B980121904759
:100C0000051E2DD0252D2CD0216A8847C0B16269E0
:100C10000B9801219047216A88470028F7D1626923
:100C2000411E0B98904700E0761CA1690D988847FB
:100C3000216A88470028F7D1E1690D988847DBE7EA
:100C4000A1690D988847A842074601D1761CD3E7D1
:100C5000E1690D9888477F1C02D1BAF1000F6FD06F
:100C60006BE162690B9800273D46394690472A2878
:100C700004D162690B98012190470125DFF8D082E9
:100C800062690B9801219047A0F130010A290AD22C
:100C90004745E5DC07EB870100EB4107303FDFD438
:100CA00045F01005ECE7E90601D46FF000476C2829
:100CB0000AD04C2814D0682815D06A280DD0742882
:100CC0001CD07A281AD01DE062690B980121904748
:100CD0006C2802D045F0040514E045F002050DE053
:100CE00045F020050AE062690B98012190476828C9
:100CF00002D045F0080505E045F4006562690B98EF
:100D000001219047C4E9015765283DD019DC5828D6
:100D10007AD00CDC452837D004DC252826D04128A1
:100D20009ED131E046282FD0472899D12CE05B286E
:100D300077D0612828D063287CD0642823D15AE05A
:100D4000F6E06F2848D008DC66281DD067281BD045
:100D5000692821D06E2816D127E0702845D0732845
:100D600068D0752847D078280DD14DE0A1690D983D
:100D70008847252805463FF469AFE1690D98884703
:100D80006D1C3FF46AAFD8E00D9923466A466FF0B8
:100D9000010011F01CFFC5E045F0400023464FF074
:100DA00000026060A80736D43EE0E8077FF447AF52
:100DB0002068011D21600068290501D506701BE728
:100DC000290701D5068017E7A90703D5F117C0E960
:100DD000006111E706600FE745F0400023464FF041
:100DE00008026060A80716D41EE040F60E0125EA4E
:100DF0000100606016E045F0400023464FF00A0213
:100E00006060A80707D40FE045F040006060A807C5
:100E100008D5234610220D996FF00100AFF3008032
:100E200080E007E0102223460D996FF00100FFF7E4
:100E30004BFB77E04FF0000963284F46C8464B460E
:100E4000CB4602D05B2806D038E0E80601D401206A
:100E5000A060012732E06269D4F80CB00B98012140
:100E600090475E2807D14FF0010949466269D4F8DE
:100E70000CB00B989047216939B900210A4603ABA1
:100E800043F82120491C0829FADBD8B3216949B36A
:100E900008F1010862690B98012190475D28F4D19F
:100EA000B9F1000F09D0002003A951F82020D24346
:100EB00041F82020401C0828F7DB03AB20690028FC
:100EC00020794FEA40701ED05B462246CDF8008064
:100ED000CDE901970D9900286FF0010020DAAFF3FA
:100EE00000801FE0C11703AA00EBD1614B1121F074
:100EF0001F0102EB8302411A13680120884003435B
:100F00001360C7E719E00D99224600286FF0010031
:100F1000009702DAAFF3008004E0AFF3008001E055
:100F2000AFF3008000280ADA401C06D10C9820B1EB
:100F30004FF0FF300FB0BDE8F08F5046FAE7E907F9
:100F400001D10AF1010A064400200C9054E6000089
:100F5000CCCCCC0C10B500F0B1FABDE8104000F0DC
:100F6000A8BA30B503461D781DB10A4603E0AC426D
:100F700001D1181A30BD12F8014B002CF7D15B1CBF
:100F8000F1E730B503461D783DB10A4612F8014B32
:100F90001CB1AC42FAD15B1CF5E7181A30BD7047A2
:100FA0007546FFF7F1FDAE4605006946534620F051
:100FB0000700854618B020B5FFF776F9BDE8204058
:100FC0004FF000064FF000074FF000084FF0000B05
:100FD00021F00701AC46ACE8C009ACE8C009ACE8B8
:100FE000C009ACE8C0098D467047000010B500F09C
:100FF00093FA001D10BD00BFBD0B01002DE9FF4F8E
:10100000064689B00878FF2806D0491C2D2805D04F
:1010100000244FF0000908E000200CE00124F8E76C
:1010200009EB8903491C00EB43090878FF28F7D135
:1010300014B1C9F100008146107800252C46AA465B
:1010400029462D2801D02B2804D1521C2D2813D03D
:10105000002082468B461078FF280FD04FF0000CFE
:101060000A21521CA5FB017804FB018105FB0C1130
:10107000C5194BEB0104EEE70120EAE70021084621
:101080004FF00000BAF1000F02D000EB80004008E2
:10109000C0F38158B8F1010F01DD4FF0FF380C9813
:1010A00009EB000755EA040009D04FF0020917F5D3
:1010B000FA7F0BDA4FEACA70C6E900B012E04FEAD5
:1010C000CA70C6E900B00DB0BDE8F08FB7F5FA7F81
:1010D0000DDDF0487844D0E90010C6E9001040EA80
:1010E000CA707060FFF754FDC0F80090EBE7391E3E
:1010F00002DAC8F1000200E0424600DA794206A8AE
:1011000000F00EFA06AB93E8070003AB83E8070094
:1011100044F23E005BEA04010090584604D144F2D8
:101120001E012C465D460091210C0904014306D1A5
:101130000099240444EA15442D041039009104F068
:101140007F41014306D10099240244EA15642D022F
:101150000839009104F07041014306D1009924013F
:1011600044EA15742D01091F009104F04041014328
:1011700006D10099A40044EA9574AD00891E00913F
:1011800004F00041084304D100986D196441401EE9
:10119000009042466846002FCDE9014503A902DDD3
:1011A00000F0DBFE01E000F0B0FEBAF1000F0446F3
:1011B0000D4601D084F0004440F2FF7724F0004057
:1011C000284303D0C4F30A50B84212D1FFF7E0FC21
:1011D000C0F80090C4F30A50B8420AD1AE4878442F
:1011E000D0E90010C6E9001004F000410843706027
:1011F00069E7C6E9005466E72DE9FF4F1F464FF047
:10120000000A4FF0FF38454691B0D7E90146CDF8C6
:101210003CA000F081F9C0680168405C1090B96999
:1012200012986D1C8847396A814688470028F6D194
:10123000B9F1FF3F0AD0002E24F4D06411DDB9F1DA
:101240002B0F08D0B9F12D0F0BD102E0404615B09D
:101250003AE744F48064B96912986D1C8847761E99
:101260008146600504A901D52D2000E02B20002E29
:1012700001F1010B0DF130088DF810003FDDB9F1DF
:10128000690F08D0B9F1490F05D0B9F16E0F02D03E
:10129000B9F14E0F1CD13B4601A8009580E85002E1
:1012A000DDE912126FF0020011F095FCC11CCED1E5
:1012B0000EE0B96912986D1C884781461398761E16
:1012C00044F4007405600F98401C002E0F9016DD4A
:1012D000B9F1300FEDD0B9F1780F02D0B9F1580F54
:1012E0000DD10F9801280AD13B46CDE90054DDE924
:1012F0001212001F029611F06CFCC11CA7D11099AC
:1013000089453ED144F0800406E01399681CAAF197
:10131000010A44F400740860B9696D1C1298761EC5
:10132000884730288146F0D02BE01099894505D1B7
:10133000200603D4761E44F0800418E0484606F0E8
:10134000DDFA08B3761E0DF123018B4544F40074D9
:1013500008D2A9F130000BF8010B200607D5AAF13D
:10136000010003E0200602D40AF101008246A00534
:1013700002D51399681C0860B96912986D1C8847DA
:101380008146002ED1DC53E0002E51DDB9F1650F0E
:1013900002D0B9F1450F4BD1A00549D5B9696D1CF3
:1013A0001298761E24F440748847002E81460CDD86
:1013B0002B2804D0B9F12D0F07D144F48074B969FA
:1013C00012986D1C8847761E8146E00501D52D21B7
:1013D00000E02B2108F8011BCDF8008021E0761EEB
:1013E0000DF13901884544F400740CD2A9F13000A4
:1013F00010F0FF0088F8000002D10099884509D953
:1014000008F1010806E0E00501D5244801E042F2B8
:101410000F708246B96912986D1C884781461398EF
:101420000560002E04DD484606F068FA0028D6D193
:10143000F96912988847FF2053468BF8000088F816
:10144000000000200A900B9004AA0CA90AA8FFF73C
:10145000D5FDA00502D46FF00100F8E614F0240FCA
:101460000AD0E00714D13868DDE90A12031D3B6099
:101470000068C0E900120BE00AA9684606F0D8F936
:10148000E00705D13868009A011D396000680260E4
:101490002846DCE68C2B0100822A0100F1D8FFFFF0
:1014A00010B50446AFF300802046BDE81040FEF7BB
:1014B000E6BE002801D000F029B8704710B5012819
:1014C00005D0002103A000F099F8012010BD09A16A
:1014D000F8E7000053494752544D454D3A204F75A7
:1014E00074206F662068656170206D656D6F72791C
:1014F000000000003A2048656170206D656D6F72D4
:101500007920636F727275707465640001491820E8
:10151000ABBEFEE7260002000048704730200020E6
:101520002DE9F047814616468AB0334878440DC805
:101530008DE80D0030487844801C03AC0DC884E869
:101540000D0041F69B300844372190FBF1F290FBEF
:10155000F1F5A5F1800501FB12041B3C02D56442A4
:10156000012000E00020DFF890A080460027FA4428
:10157000AAF1BE0A0DE0E00709D03246684607EB43
:1015800047010AEB810100F0D4FC8DE807006410EC
:101590007F1C002CEFD1184F7F44AC3F18E0E807C8
:1015A00014D007EB04100DF1180A90E80E008AE839
:1015B0000E00C068F04201D198190890324606A981
:1015C00003A800F0B6FC03AB83E807006D10641CB1
:1015D000002DE4D132466946B8F1000F03A802D0CD
:1015E00000F07FFC01E000F0A4FCC9E90001C9F8AB
:1015F00008200AB0BDE8F087FC26010070B505465A
:101600000C460A2000E06D1C00F011F835B1287876
:101610000028F8D102E0641C00F009F814B1207829
:101620000028F8D1BDE870400A20AFF3008008B56B
:1016300069468DF800000320ABBE08BD2DE9FF4FC1
:101640001F464FF03C0987B04FF00042DDE914100F
:1016500001F10108DDF858A002EA40500390002093
:1016600005908346054604460490B969461E0898CD
:101670008847AAF1010A0290BAF1000F3BDD0298F7
:101680002E2815D01021FFF7C6F900282EDB4FF0C9
:10169000010B0599014317D0B9F1000F0BDB4A4646
:1016A000C117FEF7E0FE05430C43A9F1040905E06C
:1016B000012004900BE008B145F0010501200590E0
:1016C000049820B9361D02E0049800B1361FB969AC
:1016D000089808F101088847BBF1000FAAF1010A38
:1016E0000290C9D00999C1F80080C5E70298702816
:1016F00008D0502806D0F96908988847BBF1000F38
:1017000014D04FE0002002900120BBF1000F0490A4
:1017100009D0B969089808F101088847AAF10109B8
:10172000B9F1000F07DCF969089888476FF00100EC
:101730000BB0BDE8F08F2B2804D02D280CD14FF032
:10174000FF300490B969089808F101088847A9F1A9
:101750000109B9F1000FE6DD411CE4D00A21FFF7D1
:101760005AF90028DFDB029908F1010801EB810139
:1017700000EB41000290B969089888470A21FFF7F9
:101780004AF9099AA9F10109B9F1000FC2F80080DC
:1017900001DD0028E7DAF96908988847049902987A
:1017A00000FB016655EA040004D004F04041090042
:1017B00002D006E0039898E0A40044EA9574AD00D6
:1017C000B61E04F00041080002D16D196441761E76
:1017D000159810F0240F03D04FF00B095C4803E07C
:1017E0004FF028096FF07D008246564507DAAAEBD4
:1017F00006018944B9F1410F01DD4FF04109012093
:101800000021A9F10102FEF72EFE024628400B46F8
:101810002140084301D0012100E00021501E029127
:1018200043F1FF3128402140084301D0012000E06E
:1018300000200299834651EA0B014FD0002108464F
:101840004FF00000039900F4400039B100EB800034
:101850004FF4400100EBD07001EA600080150128D0
:1018600002DD4FF0FF3000E013D0401C36D002986C
:1018700060B3BBF1000F0CD14A4601200021FEF7F6
:10188000F2FD28402140084301D0012000E0002063
:10189000E0B101204A460021FEF7E5FD034640196C
:1018A0000A4661412D1A8C4111D3B9F1400F09DD6F
:1018B000159810F0240F02D0AAF1340603E0AAF123
:1018C000170600E0761C00254FF0004406E05B1E82
:1018D00042F1FF3220EA030521EA0204CAF10100C5
:1018E000B04206DA1B49039808430190002000909B
:1018F0000EE0039AC4F3D321E80A0A43164940EAEA
:1019000044500A433146CDE90002684605F0ECFF39
:10191000159810F0240F0BD01598C00715D1386812
:10192000DDE90012031D3B600068C0E900120CE015
:1019300002A8694605F07CFF1598C00705D13868F4
:10194000029A011D3960006802604046F0E600001E
:1019500002FCFFFF0000F07F0000F03F2DE9FF4F89
:1019600092461D4685B04FF00041DDE9124BDDE99E
:1019700014727F1E01EA4B50414940F0FF4940EA92
:101980000108002122F020004928049102D04E28AD
:1019900028D04CE03BA0012607C88DE80700A969C4
:1019A0000698641C88477F1E014606D41DF8060071
:1019B00018B121F0200181420BD0E96906988847CF
:1019C000032E34D0082E32D06FF0010009B0BDE8EC
:1019D000F08F761C032E01D0082EE0D1601CCAF8CF
:1019E0000000DCE7A9690698641C88477F1E2AD49A
:1019F00020F02000412826D1A9690698641C884758
:101A00007F1E20D420F020004E281CD1A969069802
:101A1000641C88477F1E48F4002849F48009CAF8EE
:101A2000004001D4282806D0E969069888475FEA73
:101A3000CB7012D022E0A9690698641C88477F1EEB
:101A400001D4002803DAE96906988847BCE7292809
:101A5000F1D1641CCAF80040E9E71BF0240F07D05D
:101A600028680499031D2B600068C0E9001805E090
:101A70002868021D2A600068C0F800902046A5E78B
:101A80000000F07F494E46494E495459000000007D
:101A900020F07F4C80EA030023F07F47ACEB070384
:101AA00003F57C5300F0004003F1FF032DE980496A
:101AB0004FEA154B09B44FEA144325EA0B4E24EACA
:101AC00003480FF2042606EB132749083E785FEA25
:101AD000320203FB0667C7F5000707FB06F64FEA6D
:101AE00054374FEAD64606F1020607FB066CCCF1E6
:101AF000005C4FEA1C472CEA074C07FB06F40CFB82
:101B000006F504EB15464FEA961634BF00204FF059
:101B100000404FEAD13706FB07FC4FEA1C4C0CFB98
:101B20000BF7D21B03FB0CF761EB07010CFB0EF765
:101B3000B0EB074072EB17420CFB08F734BFA2EB87
:101B40000742B2EB074261EB17414FEA0C444FEA00
:101B5000910706FB07FC4FEA1C4C0CFB0BF7B0EBA4
:101B6000C74072EB573203FB0CF734BFA2EBC742FE
:101B7000B2EBC74261EB57310CFB0EF7B0EBC7007D
:101B800072EB57720CFB08F734BFA2EBC702B2EB43
:101B9000C70261EB5771039F4FEA816141EA9211DD
:101BA00004EBCC044FEAD1374FEA826206FB07FC14
:101BB00042EA90124FEA80604FEA1C4C0CFB0BF794
:101BC000D21B03FB0CF761EB07010CFB0EF7B0EB2C
:101BD000074072EB17420CFB08F734BFA2EB074239
:101BE000B2EB074261EB17414FEA8C554FEA910780
:101BF00004EB9C2406FB07FC4FEA1C4C0CFB0BF788
:101C0000B0EBC74072EB573203FB0CF734BFA2EBCB
:101C1000C742B2EBC74261EB57310CFB0EF7B0EB9A
:101C2000C70072EB57720CFB08F734BFA2EBC70278
:101C3000B2EBC70261EB577115EB4C254FEA81619E
:101C400041EA92114FEA82624FEAD13742EA90129A
:101C500006FB07FC44F100044FEA80604FEA1C4C8D
:101C60000CFB0BF7D21B03FB0CF761EB07010CFB22
:101C70000EF7B0EB074072EB17420CFB08F734BFCE
:101C8000A2EB0742B2EB074261EB174115EB1C15C3
:101C90004FEA813141EA92414FEA823242EA904270
:101CA0004FEA80304FEA0C7644F1000448EA0343DF
:101CB0004EEA0B484FF0000EB2EB080C71EB030735
:101CC00024BF624639464EEB0E0E4FF0000B001853
:101CD000524149414BEB0B0BB2EB080C71EB030784
:101CE0007BF1000B24BF624639464EEB0E0E4FF0DF
:101CF000000B0018524149414BEB0B0BB2EB080CA7
:101D000071EB03077BF1000B24BF624639464EEBB3
:101D10000E0E51EA020718BF46F0010616EB0E76CA
:101D200055F1000254F1000103D5BDE88901BDE879
:101D30000088BDE88901BDE80048B619524141EB71
:101D40000101A3F10103704780807F7E7D7C7B7A57
:101D50007978777676757473727171706F6E6E6D57
:101D60006C6C6B6A6A6968686766666564646363FD
:101D700062616160605F5F5E5E5D5D5C5C5B5B5A83
:101D80005A595958585757565655555554545353F0
:101D900052525251515050504F4F4F4E4E4D4D4D4B
:101DA0004C4C4C4B4B4B4A4A4A4949494848484796
:101DB00047474746464645454544444444434343D4
:101DC000434242424241414146EA0646A3F570532E
:101DD0004FEA164646EA42564FEAD22242EA4152BA
:101DE00010B54FEAD121A3F1010300F017F820F05C
:101DF000004000F1010C00F0004701EB00501146DB
:101E0000BCF5006F40EA070000D210BD02484FF059
:101E1000000140EA070010BD0000F07F002B26D42F
:101E2000770021D01CB54FEA370703B44FF01000FC
:101E30004FF010014FF000000FBCBDE810400BF157
:101E4000010BBBF1010F08BF5FEA170722BF12F1B8
:101E5000010211F101014FF0004143F1000300F0D4
:101E6000004043EA00007047F9D35708DAE746EA32
:101E7000064613F1400F4FEA16461FDD13F1200FFF
:101E8000DFBF16430A46002120335B42C8D0C3F1AE
:101E9000200746EA064602FA07F74FEA164646EAE0
:101EA0000706C3F1200722FA03F201FA07F721FA25
:101EB00003F14FF0000342EA0702B1E746EA0206E7
:101EC00046EA06464FEA164646EA0106BCBF46EA1F
:101ED0000646360C4FF000034FF000024FF00001B1
:101EE0009EE72DE9C048934630B491E8380007C812
:101EF00031EA400C48BF34EA430C03D5FFF7C8FD74
:101F0000FFF78CFFF0BCBDE800882DE9C048934680
:101F100030B491E8380007C831EA400C48BF34EAD1
:101F2000430C03D5FFF7B4FDFFF74EFFF0BCBDE84F
:101F300000882DE9C048934630B491E8380007C8BE
:101F400010F0804F08BF13F0804F03D100F019F854
:101F5000FFF764FFF0BCBDE800882DE9C048934658
:101F600030B491E8380007C810F0804F08BF13F074
:101F7000804F03D100F005F8FFF726FFF0BCBDE865
:101F8000008820F07F4780EA030023F07F4C07EBB6
:101F90000C03A3F57C5300F00040A3F1FE0392F084
:101FA000000F00F0B38095F0000F00F077802DE96E
:101FB00001494FEA11404FEA144621EA004800FB6C
:101FC00006FC24EA064708FB06F607FB08F800FBB8
:101FD00007F718EB06484CEB164C4FEA124B18EB80
:101FE00007484FEA15464CEB174022EA0B4E0BFB15
:101FF00006FC25EA06470EFB06F607FB0EFE0BFB6A
:1020000007F71EEB064E4CEB164C4FF000061EEB8E
:10201000074E4CEB174B18EB0B0840F1000018EB88
:102020000E0B58EB000840F100008F1A4FF0000132
:102030003CBFC943661B14BFB5EB040C00213CBF79
:10204000C943F61B4FEA17444EEA8E0E27EA0445B1
:102050004FEA1C4704FB07622CEA074C05FB07F715
:102060000CFB05F604FB0CFC16EB074642EB174293
:1020700016EB0C4642EB1C421BEB060658EB020229
:10208000414146EA9E0601D5BDE80189B619524193
:1020900041EB0101A3F10103BDE801894FEA1445B9
:1020A0004FEA114724EA054621EA074C05FB07F4ED
:1020B00006FB07F70CFB06F105FB0CFC11EB0741D7
:1020C00044EB17444FEA124711EB0C4144EB1C441C
:1020D00022EA074C05FB07F206FB07F70CFB06F6A6
:1020E00005FB0CFC16EB074642EB174216EB0C46C1
:1020F00042EB1C456A1854F1000148BF7047B619FD
:10210000524141EB0101A3F10103704795F0000F2B
:1021100037D04FEA11424FEA144721EA024624EA37
:10212000074C02FB07F106FB07F70CFB06F402FB6A
:102130000CFC14EB074441EB17414FEA154714EB35
:102140000C4441EB1C4125EA074C02FB07F506FB5A
:1021500007F70CFB06F602FB0CFC16EB074645EBFB
:10216000174516EB0C4645EB1C42121951F10001C4
:1021700048BF7047B619524141EB0101A3F1010379
:1021800070474FEA14454FEA114724EA054621EA11
:10219000074C05FB07F106FB07F70CFB06F24FF0B7
:1021A000000605FB0CFC12EB074241EB174112EB5A
:1021B0000C4251EB1C4148BF7047921841EB0101A2
:1021C000A3F101037047CA430260704721B18268DE
:1021D00042F00102826003E0826822F00102826024
:1021E000704700000021084A1168084A1140D0E9F0
:1021F00000231A4383681A43C3681A431143044AED
:10220000C2F804137047000004230140E030FCFFD3
:102210000020014021B1826842F48072826003E0B4
:10222000826822F480728260704721B1826842F431
:102230000072826003E0826822F40072826070475C
:1022400030B50246002000235068104C20400D7924
:102250000C6844EA05242043506090680C4C2040F0
:10226000D1E903542C438D682C434D7944EA45044D
:1022700020439060D06A20F470000C7D641EE4B2AC
:10228000234340EA0350D06230BD0000FFFEFFFC54
:10229000FDF7FFC0F0B504460D4600200021092DD2
:1022A00011DDE068A5F10A0606EB4607072606FAE7
:1022B00007F18843A5F10A0606EB460603FA06F184
:1022C0000843E0600CE0206905EB4507072606FAA5
:1022D00007F1884305EB450603FA06F10843206140
:1022E000072A0FDA606B561E06EB86071F2606FAD2
:1022F00007F18843561E06EB860605FA06F10843E9
:10230000606322E00D2A0FDA206BD61F06EB8607EA
:102310001F2606FA07F18843D61F06EB860605FA44
:1023200006F10843206310E0E06AA2F10D0606EB17
:1023300086071F2606FA07F18843A2F10D0606EB71
:10234000860605FA06F10843E062F0BD816841F0B7
:10235000804181607047000038B10849096841F444
:102360000001074AC2F8041306E00449096821F491
:102370000001034AC2F8041370470000042301401F
:102380000020014000BFFEE710B50E490E4800F0E6
:1023900075F9012815D10D490B4800F075F8094968
:1023A000094800F08BF80021094800F094FC012155
:1023B000074800F0D9FC0021034800F099F806F026
:1023C000C3FD10BD008020104060024000001D10C1
:1023D0000058004010B50B490B4800F04FF9012898
:1023E0000FD1002240F22661084802F078FA01225B
:1023F00040F22661054802F072FA0249024800F0F4
:102400005DF810BD2080002070600240004C00404C
:1024100010B50B490B4800F031F901280FD100220B
:1024200040F22661084802F05AFA012240F2266181
:10243000054802F054FA0249024800F03FF810BD86
:1024400000802020A06002400044004010B50B49ED
:102450000B4800F013F901280FD1002240F2266149
:10246000084802F03CFA012240F22661054802F0D9
:1024700036FA0249024800F021F810BD0080002819
:10248000B8640240001001400246094B9A4201D252
:10249000084801E00648103801F000531BB1064B14
:1024A0000B40C36002E0044B0B40836070470000A8
:1024B00010640240006002407D0F7D0F0246094B10
:1024C0009A4201D2084801E00648103801F0005352
:1024D0001BB1064B0B40C36002E0044B0B40836012
:1024E0007047000010640240006002407D0F7D0FC5
:1024F00021B1026842F00102026003E0026822F0AA
:102500000102026070470000016821F001010160D2
:102510000021016041608160C16001612121416150
:102520004A49884204D13D21484A103A91608CE0E2
:1025300046491831884205D14FF47461434A103A34
:10254000916082E041493031884205D14FF47411E5
:102550003E4A103A916078E03C494831884205D1C2
:102560004FF07461394A103A91606EE0374960313A
:10257000884204D13649354A103AD16065E0334982
:102580007831884204D13349304A103AD1605CE056
:102590002E499031884204D12F492C4A103AD160FB
:1025A00053E02A49A831884205D14FF03D51274ACE
:1025B000103AD16049E02949884204D13D21274A97
:1025C000083A116041E025491831884205D14FF49D
:1025D0007461224A083A116037E02049303188425C
:1025E00005D14FF474111D4A083A11602DE01B49C2
:1025F0004831884205D14FF07461184A083A116099
:1026000023E016496031884204D11149134A121F50
:1026100011601AE011497831884204D10D490F4AFE
:10262000121F116011E00D499031884204D10A490E
:102630000A4A121F116008E00849A831884204D1F3
:102640004FF03D51054A121F116070471060024063
:102650003D000020400F002000003D20106402409B
:10266000014600200A6802F001020AB1012000E0E0
:10267000002070470146486880B2704770B5024636
:10268000002000240025124EB24201D2114B01E07D
:102690000F4B103B104E0E4036B11E2606EAD124D9
:1026A000166806EA040502E0566906F0800501F0A6
:1026B00000560EB15C6800E01C68084E344004EA25
:1026C000010616B10DB1012000E0002070BD000030
:1026D00010640240006002403C0F3C0F7D0F7D0FF4
:1026E00010B501F080034BB122B1436943F0800380
:1026F000436103E0436923F08003436180290BD0E9
:102700002AB1036801F01E042343036004E0036858
:1027100001F01E04A343036010BD000010B50022A9
:102720000268134B1A40CC680B6823434C6923435F
:102730008C692343CC6923430C6A23434C6A2343AB
:102740008C6A23434C6B23438C6B23431A430260F4
:10275000426922F00702D1E90B3423431A43426154
:102760000B6943604B6883608B68C36010BD0000D9
:102770003F801CF07047000001490860704700006E
:10278000143C0140002123498279002A3AD00A46AC
:10279000126803689A430B461A600A1D12680368A0
:1027A0009A430B1D1A60027911440A6803681A43A0
:1027B0000A60184A0832126803689A43154B0833B6
:1027C0001A601A1D126803689A43124B0C331A6080
:1027D0004279102A0ED11A1F126803681A430D4B52
:1027E00008331A601A1D126803681A43094B0C3328
:1027F0001A600DE00749427911440A6803681A43D8
:102800000A6005E0027911440A6803689A430A6085
:1028100070470000003C014001490860704700001B
:102820000C3C024070B504460A460026092502B950
:1028300009E0012A01D1160205E0022A01D116029F
:1028400001E04FF4407600F0B1F80546092D28D19B
:102850001548006820F44070134908600846006875
:10286000304308600846006820F0F8000860084619
:10287000006844F0020108430B49086008460068FC
:1028800040F48030086000F091F805460648006882
:1028900020F00200044908600846006820F0F800B3
:1028A0000860284670BD0000103C02400146002030
:1028B000034A12680A400AB1012000E00020704774
:1028C0000C3C024009201349096801F48031B1F53C
:1028D000803F01D101201CE00E49096801F0100180
:1028E00009B1062015E00B49096801F4807109B1AE
:1028F00002200EE00749096801F0EF0109B1072045
:1029000007E00449096801F0020109B1082000E06C
:10291000092070470C3C02400348006840F000402A
:102920000149086070470000103C024030B5024683
:102930000C46092500F03AF80546092D19D10E4834
:10294000006820F440700C4908600846006840F4B4
:10295000007008600846006840F0010008601460DC
:1029600000F024F805460448006820F00100024900
:102970000860284630BD0000103C0240014A10703B
:1029800070470000003C02400548006800F000402D
:1029900028B1044802490C390860034808607047B0
:1029A000103C024023016745AB89EFCD08B50920F3
:1029B0000090FFF787FF009002E0FFF783FF009091
:1029C0009DF800000128F8D09DF8000008BD000027
:1029D00010B5094B094A0121094805F035F8094BA2
:1029E000064A0121084805F02FF8084B034A012147
:1029F000074805F029F810BD2017002074010020B9
:102A0000FC16002030170020081700204017002077
:102A10001417002010B504464148844208D1012112
:102A2000084600F0AFFA0021012000F0ABFA76E092
:102A30003C48844208D10121022000F0A3FA002181
:102A4000022000F09FFA6AE03748844208D1012151
:102A5000042000F097FA0021042000F093FA5EE0D1
:102A60003248844208D10121082000F08BFA00216D
:102A7000082000F087FA52E02D48844208D1012155
:102A8000102000F07FFA0021102000F07BFA46E0D1
:102A90002848844208D10121202000F073FA002147
:102AA000202000F06FFA3AE02348844208D1012147
:102AB000402000F067FA0021402000F063FA2EE089
:102AC0001E48844208D10121802000F05BFA0021D9
:102AD000802000F057FA22E01948844208D10121F1
:102AE000801500F04FFA0021A01500F04BFA16E017
:102AF0001448844208D10121401500F043FA002116
:102B0000601500F03FFA0AE00F48844207D1012126
:102B1000001500F037FA0021201500F033FA10BD3F
:102B2000000002400004024000080240000C024085
:102B3000001002400014024000180240001C024035
:102B4000002002400024024000280240F0B50A465E
:102B500000210023002400BF3DE0012505FA01F318
:102B6000156805EA03049C4234D105684F0003262A
:102B7000BE40B543056015794E00B5400668354343
:102B800005601579012D02D01579022D16D18568C1
:102B90004F000326BE40B543856055794E00B540D1
:102BA000866835438560456801268E40B54345609B
:102BB000456896798E40B6B235434560C5684F008A
:102BC0000326BE40B543C560D5794E00B540C66802
:102BD0003543C560491C1029BFD3F0BDF0B50023B3
:102BE00000244D07ED0E02FA05F3CE1000F120058A
:102BF00055F826504E07F70E0F26BE40B543CF10AE
:102C000000F1200646F82750CE1000F1200555F8B7
:102C1000265045EA0304CE1000F1200545F8264071
:102C2000F0BD0246002013690B400BB1012000E00B
:102C300000207047418370470183704742694A40D2
:102C40004261704715E0012108200EF0BDFE00BF73
:102C5000BFF34F8F0748006800F4E060064908435F
:102C6000001D04490860BFF34F8F00BF00BF00BFC5
:102C7000FDE7E8E70CED00E00000FA0521B102886D
:102C800042F48062028004E002884FF6FF331A406B
:102C90000280704770B50246002400250023002002
:102CA000958A138B1B0445EA030626F07F4404EA49
:102CB00001068E4201D1012000E0002070BD21B14B
:102CC000028842F00102028004E002884FF6FE739F
:102CD0001A400280704721B1828842F400628280EB
:102CE00004E082884FF2FF731A4082807047000030
:102CF00010B504461348844209D10121480500F06B
:102D000071F900214FF4001000F06CF918E00E4842
:102D1000844209D10121880500F064F900214FF4B3
:102D2000800000F05FF90BE00848844208D10121DF
:102D3000C80500F057F900214FF4000000F052F9E7
:102D400010BD00000054004000580040005C0040EE
:102D500021B1028842F48072028004E002884FF6BA
:102D6000FF631A400280704721B1028842F400726A
:102D7000028004E002884FF6FF531A400280704739
:102D80000CB50246002000230193009300920B0F24
:102D9000019321F07F41019B1BB1009B14330093F1
:102DA00003E0090C009B18330093009B1B680B4049
:102DB0000BB1012000E000200CBD00002DE9FF4711
:102DC00004460D460026B1460427DFF8CC80A688CD
:102DD0004FF6C0700640684600F034F9DDF8088010
:102DE0002E48B8FBF0F01FFA80F946EA0906A680E3
:102DF00020884FF6FE710840208000262849286868
:102E000088420CD828684000B8FBF0F087B2042F45
:102E100000DA04273E4309F10100208427E0E88816
:102E20004BF6FF71884206D1286800EB4000B8FBE2
:102E3000F0F087B209E0286800EBC00101EB001058
:102E4000B8FBF0F087B247F48047C7F30B0008B92E
:102E500047F0010747F4004006434FF4967009FB22
:102E600000F04FF47A7190FBF1F0401C2084A683AF
:102E7000208840F00100208026884FF6F53006407B
:102E8000A8886989084306432680A88929890843B8
:102E90002081BDE8FF87000000127A0040420F0049
:102EA000A08601000146088AC0B2704712B141F005
:102EB000010101E001F0FE010182704701827047CB
:102EC00000BFFEE77047000070B5002100230F220D
:102ED000C4781CB3174C246804F4E064C4F5E064BF
:102EE000C4F30721C1F10404E3B20A4144789C40D1
:102EF000E1B28478144021430C07210E0E4C057872
:102F00006155047804F01F050124AC4005786D116B
:102F1000AD0005F1E025C5F8004109E0047804F0B2
:102F20001F050124AC40054D0678761145F8264072
:102F300070BD00000CED00E000E400E080E100E086
:102F4000024A0A400243024B1A60704780FFFF1F8B
:102F500008ED00E0014908627047000000000E42E1
:102F60007047000029B1064A12680243044B1A60F8
:102F700004E0034A12688243014B1A607047000064
:102F80003038024029B1064A12680243044B1A60E5
:102F900004E0034A12688243014B1A607047000044
:102FA0001038024029B1064A12680243044B1A60E5
:102FB00004E0034A12688243014B1A607047000024
:102FC0003438024029B1064A12680243044B1A60A1
:102FD00004E0034A12688243014B1A607047000004
:102FE0004038024029B1064A12680243044B1A6075
:102FF00004E0034A12688243014B1A6070470000E4
:103000002038024029B1064A12680243044B1A6074
:1030100004E0034A12688243014B1A6070470000C3
:103020004438024029B1064A12680243044B1A6030
:1030300004E0034A12688243014B1A6070470000A3
:1030400024380240F0B50021002200240225002689
:103050000223324F3F6807F00C0121B1042905D04B
:10306000082937D105E02E4F076036E02D4F076065
:1030700033E02A4F3F1F3F68C7F38056274F3F1F5B
:103080003F6807F03F036EB1264FB7FBF3F7DFF859
:103090008CC0ACF1040CDCF800C0CCF3881C07FB3E
:1030A0000CF40CE01E4FB7FBF3F7DFF870C0ACF187
:1030B000040CDCF800C0CCF3881C07FB0CF4174FA1
:1030C0003F1F3F68C7F301477F1C7D00B4FBF5F746
:1030D000076002E0124F076000BF00BF0F4F3F685C
:1030E00007F0F0010909104F7A5C0768D740476084
:1030F0000A4F3F6807F4E051890A0B4F7A5C476832
:10310000D7408760054F3F6807F46041490B064F81
:103110007A5C4768D740C760F0BD000008380240BD
:103120000024F40000127A00CE03002010B50146FE
:103130000022002300204A11012A02D10A4C2368F0
:1031400008E0022A03D1084C7034236802E0064CE0
:103150007434236801F01F02012494401C400CB118
:10316000012000E0002010BD003802400021094A83
:1031700011701170012802D0042808D103E0012148
:10318000044A117004E00521024A117000E000BFFA
:1031900000BF704770380240014908607047000066
:1031A000800E474201490860704700003C0E4742CC
:1031B000002100F44072B2F5407F08D1094A11683D
:1031C00021F4F811084A02401143064A1160054AE9
:1031D00068321268C0F30B031A43024B68331A605B
:1031E0007047000008380240FFFCFF0F30B107496C
:1031F000096841F00401054A116005E003490968C6
:1032000021F00401014A11607047000000080650D7
:1032100001480068704700000808065010B54FF4D8
:10322000805000F09BF828B14FF4805000F02EF849
:1032300000F0FEFD4FF4005000F090F828B14FF47C
:10324000005000F023F800F0F4FD4FF40030014985
:10325000086010BD143C0140014600BF080900EBA6
:103260008000420001F00F001044C0B270470146D8
:10327000002204E0501CC2B2A1F10A00C1B20A2926
:10328000F8DA100741EA10607047000000210109D8
:103290008AB242F08002044B1B6803F0800363EAA9
:1032A0000202014B1A6070470C28004008B500224A
:1032B000009200200021104A126802F04002CAB9B0
:1032C000421E0D4B1A6000BF0B4A126802F040010B
:1032D000009A521C0092009AB2F5803F01D000295A
:1032E000F2D0054A126802F040020AB1012002E061
:1032F000002000E0012008BD0C28004003480068C1
:1033000020F0800001490860704700000C28004050
:1033100070B506460C4600250E4800680E4900EAC6
:103320000105280CE070C5F30420607005F03F0033
:10333000A070C5F3423020705EB9E078FFF78CFFD3
:10334000E0706078FFF788FF6070A078FFF784FF77
:10335000A07070BD042800403FFFFF0030B501465B
:103360000020002200230C4C246804F004020A4CC4
:10337000383C24680C4002EAD13544EA0503064C87
:10338000343C246804EA11121BB194B20CB1012040
:1033900000E0002030BD00004028004070B5064627
:1033A0000C4600250F4800680F4900EA0105C5F3E7
:1033B00005402070C5F30620607005F07F00A07006
:1033C00005F48000000CE0705EB92078FFF744FF40
:1033D00020706078FFF740FF6070A078FFF73CFF37
:1033E000A07070BD002800407F7F7F00CA22174B6D
:1033F0001A6053221A6091B1144A1C3A126820F0E4
:1034000004031A43114B1C3B1A60104A1C32126809
:1034100000F004031A430D4B1C331A6011E00B4AF1
:103420001C3A126820F004039A43084B1C3B1A60B4
:10343000064A1C32126800F004039A43034B1C3303
:103440001A60FF22014B1A607047000024280040D8
:1034500030B504460025CA2015490860532008608D
:10346000FFF724FF00B91DE011481C38006820F068
:1034700040000F491C39086008460068216808436D
:103480000B491C3908600A491439A06808600846CD
:103490000068A18840EA0140054914390860FFF737
:1034A0002DFF0125FF2002490860284630BD00009D
:1034B0002428004008B501460020009004480090F0
:1034C000009800EB810000900098006808BD0000A3
:1034D000502800402DE9F04105460C460026002703
:1034E0004DB9607800F01000102804D1607820F009
:1034F00010000A30607005B908E06078FFF7ACFE94
:103500000646A078FFF7A8FE064600BF55B1E07852
:103510000004617840EA0120A1780843217840EA5C
:10352000413611E0E078FFF7A2FE4FEA00486078EC
:10353000FFF79DFE48EA0028A078FFF798FE48EACA
:103540000008207848EA4036CA2012490860532013
:103550000860FFF7ABFE08B9002714E00E483040C2
:103560000C4920390860FFF7C9FE0A481C3800687A
:1035700000F0200030B900F09FF808B9002702E001
:10358000012700E00127FF20024908603846BDE816
:10359000F0810000242800403FFFFF002DE9F041AA
:1035A00005460C46002600274DB92E48006800F05D
:1035B000400000B102E00020E07000BF0DE02948AB
:1035C000006800F0400020B12078FFF745FE064675
:1035D00002E00020E07000BF00BF55B12078000479
:1035E000617840EA0120A1780843E17840EA014689
:1035F00011E02078FFF73BFE4FEA00486078FFF7C4
:1036000036FE48EA0028A078FFF731FE48EA0008B5
:10361000E07848EA0046CA2012491C31086053206D
:103620000860FFF743FE08B9002713E00E4830405A
:103630000C4908390860FFF761FE0A48006800F08D
:10364000200030B900F038F808B9002702E001275F
:1036500000E00127FF2003491C3108603846BDE81F
:10366000F0810000082800407F7F7F00CA21054AC2
:10367000116053211160034910390860FF21116066
:10368000704700002428004010B54FF48040FFF739
:1036900065FE48B14FF48040FFF7F8FD4FF480001D
:1036A000FFF76AF800F0D0FD4FF480000149086090
:1036B00010BD0000143C014008B50022009200201B
:1036C0000021CA22134B1A6053221A60114A183A79
:1036D000126822F0A0020F4B183B1A6000BF0D4A7F
:1036E000183A126802F02001009A521C0092009AC7
:1036F000B2F5003F01D00029F1D0064A183A12680D
:1037000002F020020AB1012000E00020FF22014B5C
:103710001A6008BD24280040CA210A4A11605321BA
:10372000116008491C39096821F00701054A1C3A53
:1037300011601146096801431160FF21014A1160BF
:10374000704700002428004008B500220092044A77
:103750000092009A02EB80020092009A116008BD6C
:103760005028004018B1FF21044A116004E0CA212A
:10377000024A116053211160704700002428004064
:10378000704700000CB5002001900090344800689C
:1037900040F480303249086000BF3148006800F4CE
:1037A000003000900198401C0190009818B90198D1
:1037B000B0F5A04FF1D12A48006800F4003010B1F4
:1037C0000120009001E0002000900098012846D1DF
:1037D00023484030006840F0805021494031086063
:1037E0002048006840F440401E4908601C480830EA
:1037F00000681B49083108600846006840F4004032
:1038000008600846006840F4A05008601648091F88
:103810000860081F006840F08070091F086000BF42
:103820000F48006800F000700028F9D040F20570E1
:103830000E4908600A480830006820F00300084973
:10384000083108600846006840F00200086000BFC8
:1038500003480830006800F00C000828F8D10CBDBF
:10386000003802400070004008544007003C02400D
:103870007047000070B500200022022300240221BE
:10388000274D2D6805F00C0020B1042806D008282B
:1038900034D107E0234D244E356033E0234D224ED2
:1038A00035602FE01E4D2D1F2D68C5F380541C4D33
:1038B0002D1F2D6805F03F0154B11C4DB5FBF1F5EE
:1038C000174E361F3668C6F3881605FB06F209E068
:1038D000144DB5FBF1F5124E361F3668C6F3881647
:1038E00005FB06F20E4D2D1F2D68C5F301456D1C1D
:1038F0006B00B2FBF3F50C4E356003E0094D0A4E48
:10390000356000BF00BF064D2D68C5F30315084E96
:10391000705D054D2D68C540034E356070BD0000DB
:10392000083802400024F400E003002000127A006E
:10393000E403002010B51548006840F470001349F6
:1039400008601348006840F0010011490860002039
:103950000F49083108600E4800680E4908400C49BC
:1039600008600D48091D0860081F006820F48020C9
:10397000091F0860002006490C310860FFF702FFAC
:103980004FF0006001498039086010BD88ED00E00B
:1039900000380240FFFFF6FE1030002410B52DED78
:1039A000048B01213D4800F0E7F9002873D03C4822
:1039B000006820F08000803039490860084600889F
:1039C000C0F3C020F8B9374890EDE50AD0EDEA0A17
:1039D000B4EEE00AF1EE10FA0BDD014691ED720A49
:1039E000B1EE400ABDEEC00A10EE100A0DF0D4F898
:1039F0000CE02C4991ED720ABDEEC00A10EE100ADF
:103A00000DF0CAF802E000200DF0C6F8254890ED50
:103A1000E50AD0EDEA0A30EE600A10EE101A084608
:103A20000EF0FAFF41EC190BB0EE490AF0EE690A0C
:103A300001F0B6FCB0EE408AF0EE608A9FED1A0B02
:103A400053EC102B51EC180B0EF0B2FB09D80DF013
:103A500061FD1748007820B10020154908700DF06D
:103A600085FE104890EDA90ABCEEC00A10EE100ABF
:103A7000C0B208B107F0F0FA0A4890EDAE0ABCEE09
:103A8000C00A10EE100AC0B208B107F001FA012115
:103A9000024800F099F8BDEC048B10BD0004004012
:103AA0003001002038120020000000000000F03F2C
:103AB0002901002010B50121044800F05DF918B17A
:103AC0000121024800F080F810BD0000000800400D
:103AD00010B52DED028B0121334800F04DF900287F
:103AE0005FD032480068401C3049086008460068D2
:103AF00007F0EAFC2D4800681421B0FBF1F201FB4D
:103B0000120008B90BF0F6FB284800683221B0FB20
:103B1000F1F201FB120008B907F03EFB23480068F0
:103B20004FF47A71B0FBF1F201FB1200B8B94AF61A
:103B3000AA201F49086000211E4800F0B3F907F0D1
:103B400015FA07F087F907F0DFFA07F09DFB1A482E
:103B5000007810B10DF06CFD01E00BF071FD134821
:103B6000006841F27071B0FBF1F201FB120008B97C
:103B700007F032F90D4800680EF006FB41EC180B17
:103B80009FED0E0B53EC102B0EF07CFA05D10120AB
:103B90000C4908700020054908600121024800F026
:103BA00013F8BDEC028B10BD001400406001002032
:103BB00000300040040400209201002000000000BA
:103BC00000F925414D010020CA430282704721B10E
:103BD000028842F00102028004E002884FF6FE7380
:103BE0001A4002807047000010B5044655488442D0
:103BF00008D101210846FFF715FA00210120FFF73F
:103C000011FA9DE0B4F1804F08D101210846FFF779
:103C1000E9F900210120FFF7E5F991E04A488442E3
:103C200008D101210220FFF7DDF900210220FFF772
:103C3000D9F985E04548844208D101210420FFF7E5
:103C4000D1F900210420FFF7CDF979E04048844202
:103C500008D101210820FFF7C5F900210820FFF74E
:103C6000C1F96DE03B48844208D101211020FFF7E3
:103C7000B9F900211020FFF7B5F961E03648844218
:103C800008D101212020FFF7ADF900212020FFF706
:103C9000A9F955E03148844208D101210220FFF7FB
:103CA000C1F900210220FFF7BDF949E02C48844208
:103CB00009D101210804FFF7B5F900214FF4803044
:103CC000FFF7B0F93CE02748844209D101214804BC
:103CD000FFF7A8F900214FF40030FFF7A3F92FE018
:103CE0002148844209D101218804FFF79BF9002172
:103CF0004FF48020FFF796F922E01C48844208D157
:103D000001214020FFF76EF900214020FFF76AF9FA
:103D100016E01748844208D101218020FFF762F99C
:103D200000218020FFF75EF90AE01248844207D1A3
:103D300001218015FFF756F90021A015FFF752F970
:103D400010BD0000000001400004004000080040D9
:103D5000000C00400010004000140040000401402E
:103D6000004001400044014000480140001800406C
:103D7000001C00400020004030B502460020002317
:103D80000024158A05EA0103958905EA010413B1A7
:103D90000CB1012000E0002030BD1AB183890B4333
:103DA000838102E083898B438381704700220288EC
:103DB000184B98420ED0184B98420BD0B0F1804F60
:103DC00008D0164B984205D0154B984202D0154B9F
:103DD000984204D14FF68F731A404B881A43124B06
:103DE000984207D0114B984204D04FF6FF431A4037
:103DF0000B891A4302804B68C3620B880385054B0D
:103E0000984202D0044B984201D18B7A0386012359
:103E1000838270470000014000040140000400401C
:103E200000080040000C004000100040001400405A
:103E30007047704770B504466CB90120FFF7ACF9C4
:103E400000BF6120FFF772F90028FAD04FF400702C
:103E5000FFF7AEF915E0012C13D10120FFF786F929
:103E6000052503E06D1EC82007F032FD4120FFF755
:103E70005DF908B9002DF5DC4FF48070FFF798F973
:103E800000BF0120FFF78EF90020FFF76BFCFFF762
:103E900013FC0120FFF766FC41F234211320FFF7E9
:103EA00053FC70BD70B504460D4625B91849002075
:103EB000FFF774FA03E016490120FFF76FFA144880
:103EC0000078607112484078207111488078207025
:103ED00010480068608025B90F490020FFF718FAE4
:103EE00003E00D490120FFF713FA0B48C078607218
:103EF00009484078207208488078E07106480078C8
:103F0000A071204600F096F80646E66070BD0000FD
:103F1000D000002028280040D400002030B5C16027
:103F20003C23B1FBF3F403FB141303703C23B1FBFC
:103F3000F3F1B1FBF3F403FB141303713C23B1FB66
:103F4000F3F11823B1FBF3F403FB141343711823AB
:103F5000B1FBF3F1CB1C0724B3FBF4F504FB1533E1
:103F60005B1C837140F2B27223E0D41702EB9474AD
:103F7000A410A2EB84042CB9642492FBF4F504FB96
:103F8000152434B94FF4C87492FBF4F504FB1524DE
:103F900034B9B1F5B77F02D3A1F5B77107E009E0F5
:103FA000B1F5B67F02D9A1F26D1100E002E0531C19
:103FB0009AB2DAE700BFA2F5FA63437200230372F4
:103FC0002CE0D41702EB9474A410A2EB84042CB957
:103FD000642492FBF4F504FB152434B94FF4C8743F
:103FE00092FBF4F504FB152454B9047A104B1B5DC5
:103FF0008B4204D8047A0E4B1B5DC91A0BE010E00B
:10400000037A0B4C0C3CE35C8B4203D8037AE35CF1
:10401000C91A00E005E0037A5B1C0372037A0C2BDB
:10402000CFDB00BF037A5B1C03724B1CC37130BD36
:10403000F0000020F0B5034600240025587A00F572
:10404000FA6240F2B270824201DA0020F0BD40F222
:10405000B2711CE00846CE1701EB9676B610A1EBC4
:1040600086062EB9642691FBF6F706FB171636B9BD
:104070004FF4C87691FBF6F706FB171616B94FF406
:10408000B77601E040F26D163444481C81B291428B
:10409000E0DB012121E01046D61702EB9676B61040
:1040A000A2EB86062EB9642692FBF6F706FB1726CE
:1040B00036B94FF4C87692FBF6F706FB17260EB911
:1040C000012600E0002606EB4606104F07EB8607A8
:1040D0004E1EBE5D3444481C81B2187A8842DADC38
:1040E000D879401E04440A4804FB00F55879C0EB17
:1040F0004016C6EB002005EB00151879C0EB001048
:1041000005EB80051878054428469FE7E400002069
:10411000805101007FB50446012601210807FEF702
:1041200051FF0120FEF716FF1320FFF7C3F90546E4
:1041300044F2213085421AD13749086014B9002071
:10414000FFF778FE0020FFF70DFBFFF7B5FA01201F
:10415000FFF708FB4FF48040FFF798F84FF480001A
:104160002E49086000216846FFF79CFE3DE041F2C1
:10417000342085421AD12849086014B90020FFF77D
:1041800059FE0020FFF7EEFAFFF796FA0120FFF73D
:10419000E9FA4FF48040FFF779F84FF480001F49A7
:1041A000086000216846FFF77DFE1EE000201A49E6
:1041B000086000262046FFF73DFE01208DF807002D
:1041C0008DF806008DF8080000208DF809008DF8A4
:1041D00005008DF804008DF800000021684600F00D
:1041E00035F841F234200C49086000210C48FFF7F3
:1041F00059FE0B4880790B4908700948007A0A4932
:1042000008700748407A0949087016B9002004B0C0
:1042100070BD01480068FAE7CC000020143C014062
:1042200004040020C8000020C9000020CA000020AB
:104230000146122901DD0020704702488A0050F82B
:104240002200F9E750280040704700007FB504467F
:104250000D46012D54D1E07900F00F00E1790909F4
:1042600001EB810100EB4100C0B28DF80700207A1C
:1042700000F00F00217A090901EB810100EB4100F8
:10428000C0B28DF80800607A00F00F00617A090969
:1042900001EB810100EB4100C0B28DF809006079AB
:1042A00000F00F006179090901EB810100EB410089
:1042B000C0B28DF80500207900F00F0021790909BE
:1042C00001EB810100EB4100C0B28DF804002078C1
:1042D00000F00F002178090901EB810100EB41009A
:1042E000C0B28DF80000A07900F00F00A179090993
:1042F00001EB810100EB4100C0B28DF8060014E033
:10430000E0798DF80700207A8DF80800607A8DF842
:10431000090060798DF8050020798DF80400207877
:104320008DF80000A0798DF806009DF8091063292A
:104330004EDC9DF80810E9B39DF808100C2947DC05
:104340009DF80710B1B39DF8091001F5FA60C11787
:1043500000EB91718910A0EB810149B99DF809101A
:1043600001F5FA61642291FBF2F302FB131151B9DA
:104370009DF8091001F5FA614FF4C87291FBF2F350
:1043800002FB131109B9012100E0002101EB4101F9
:104390002E4A02EB81029DF80810491E515C9DF8DF
:1043A0000720914214DB9DF80510172910DC9DF8B9
:1043B000041000E00CE03B290ADC9DF800103B29CA
:1043C00006DC9DF8061019B19DF80610072902DDDC
:1043D000002004B070BD60791D49087020794870D4
:1043E00020788870E0791B498870207A4870607A5C
:1043F000C870A07908700020174908601F20486025
:1044000040F2FF3088600846FFF722F8012D04D102
:104410000F490120FFF7C2F803E00D490020FFF724
:10442000BDF8012D04D10B490120FFF753F803E03B
:1044300008490020FFF74EF80848006820B144F210
:1044400021311320FFF780F90120C2E7E4000020AA
:10445000D0000020D4000020F8030020CC00002071
:10446000122800DD7047034A830042F8231000BF82
:10447000F8E700005028004010B501460020002257
:104480002F4B1B6803F0005333B101202C4B1B68EA
:1044900043F080732A4C236045F25553294C236026
:1044A0000B2902DB0723636002E00323254C6360D2
:1044B00009B9052239E0012901D10A2235E0022992
:1044C00001D10F2231E0032901D11F222DE004295F
:1044D00001D13D2229E0052901D17B2225E00629D1
:1044E00001D1FF2221E0072902D140F2FF121CE096
:1044F000082902D140F2FF3217E0092902D140F227
:10450000FF7212E00A2902D140F6FF720DE00B297A
:1045100002D140F2FF3208E00C2902D140F2FF72D2
:1045200003E00D2901D140F6FF72064B9A604AF66E
:10453000AA23044C23604CF6CC43236010BD00003A
:10454000743802400030004008B50748074B084A5D
:104550000849009008480AF01DFD084B084A024926
:10456000054809F065FC08BDEC1A0020C0190020C0
:10457000C102002040600240004C0040C002002008
:10458000490A020810B51E48007848B100201C49AD
:1045900008701C48A0F108014860002081F89E00C6
:1045A00040F22551184800F070F940B3164800F069
:1045B00025FAC4B20A2C16D1082214A11148FCF71E
:1045C00053F818B90F480AF013FE08E0082212A1A8
:1045D0000C48FCF749F810B90A480AF00BFD012015
:1045E000074908700AE00748083840680470054821
:1045F00008384068401C03490839486000BF10BDB6
:10460000CC030020340300200050004024505542C9
:10461000582C30340000000024505542582C3030C3
:104620000000000008B50748074B084A08490090F9
:1046300008480AF0AFFC084B084A0249054809F04F
:10464000F7FB08BD781F00204C1E0020250300202A
:10465000886402400010014024030020CD070208B6
:1046600008B50748074B084A0849009008480AF06F
:1046700091FC084B084A0249054809F0D9FB08BDDE
:10468000281D0020FC1B0020F10200208860024051
:1046900000440040F00200207908020810B5DEB0A6
:1046A0002648007848B10020244908702448A0F129
:1046B00008014860002081F89E0040F226612148F0
:1046C00000F0E3F8E8B14FF400611F48FEF7B2FADA
:1046D0004FF480611C48FEF7ADFA002240F22661DB
:1046E000184800F0FCF8012240F22551154800F06E
:1046F000F6F81448001D0088C4B200201349087061
:1047000000BF10210F4800F0B3F8012814D10D4864
:104710000DF018F80E492DA807F044F89DF8740123
:10472000012808D1B42231A96846FCF72DF82DA83C
:104730000FC807F09BFE00BF5EB010BD94020020C2
:10474000FC01002000480040000C0240EC01002069
:104750001C18002021B1828942F40052828104E0B9
:1047600082894DF6FF731A40828170471AB1838A9D
:104770000B43838202E0838A8B438382704700006D
:1047800010B504463248844208D101211020FEF7BA
:1047900049FC00211020FEF745FC57E02D488442DB
:1047A00009D101214804FEF71DFC00214FF400301F
:1047B000FEF718FC4AE02848844209D10121880408
:1047C000FEF710FC00214FF48020FEF70BFC3DE0CB
:1047D0002248844209D10121C804FEF703FC0021CC
:1047E0004FF40020FEF7FEFB30E01D48844209D163
:1047F00001210805FEF7F6FB00214FF48010FEF7BB
:10480000F1FB23E01748844208D101212020FEF764
:1048100009FC00212020FEF705FC17E01248844225
:1048200009D101218807FEF7DDFB00214FF0804010
:10483000FEF7D8FB0AE00D48844207D1012140056C
:10484000FEF7D0FB00216005FEF7CCFB10BD000099
:10485000001001400044004000480040004C00406F
:10486000005000400014014000780040007C0040EF
:1048700002460020B1F5007F00D100BF13880B4035
:104880000BB1012000E00020704770B50246002403
:1048900000230025002040F66A16B14200D100BF77
:1048A000C1F3421501F01F03012606FA03F3012D9F
:1048B00002D19689334006E0022D02D1168A334098
:1048C00001E0968A33400C12012606FA04F4168899
:1048D000344013B10CB1012000E0002070BDF0B5F0
:1048E0000346002400260025002040F66A17B9423E
:1048F00000D100BF1846C1F3421401F01F06012782
:1049000007FA06F5012C01D10C3004E0022C01D18C
:10491000103000E014301AB107682F43076002E03E
:104920000768AF430760F0BD2DE9FF4705460E4617
:104930000024A14600BFA046B08900B100BF2C8A68
:1049400024F44054F08804432C82AC8941F20C607A
:104950008443B08831890843718908430443AC819A
:10496000AC8A24F44074B0890443AC826846FEF7F4
:1049700069FB2048854202D01F48854202D1DDF8FC
:104980000C9001E0DDF80890A88900F4004040B1E7
:1049900009EBC90000EB091031684900B0FBF1F7E1
:1049A00007E009EBC90000EB091031688900B0FB92
:1049B000F1F76420B7FBF0F004012009642101FB4A
:1049C0001078A88900F4004040B1322000EBC80004
:1049D000B0FBF1F000F00700044308E0322000EBE8
:1049E00008106421B0FBF1F000F00F0004432C81AB
:1049F000BDE8FF870010014000140140014688888F
:104A0000C0F30800704700BFFEE703B401984100FF
:104A1000009850EAC12018BF04204A0D18BF40F08A
:104A2000010040F2FF72B2EB515F08BF40F002009C
:104A3000012808BF052002B070474100080218BFD6
:104A400004200A0E18BF40F001004FF07F4232EA06
:104A5000010108BF40F00200012808BF052070478F
:104A6000BFF34F8F0648006800F4E0600549084333
:104A7000001D03490860BFF34F8F00BF00BFFDE773
:104A80000CED00E00000FA0510B5B94A2DED020B5F
:104A90002DED0C8B82B00F9921F000409FEDB6CB2D
:104AA00090422CDBA0F140530E9AA3F17F631A438E
:104AB0000FD0B349884202DC16D10E98A0B19DED0B
:104AC0000E0B02B0BDEC0C8B02B0BDE8104002F042
:104AD00043BE0029C1BF9FEDAC0B02B0BDEC0C8BF7
:104AE00002B0C8BF10BD16E00120FBF78EFF02B078
:104AF000BDEC0C8B02B0BDE8104002F041BEA44AF0
:104B00009FEDA59B9FEDA6AB90425EDAA6499FED77
:104B1000A8CB814208DBB0EE4C0AF0EE6C0A02B082
:104B2000BDEC0C8B02B010BD9DED0E0B53EC102BA9
:104B300051EC100B0DF078FB41EC180B9E48062150
:104B4000B0EE480AF0EE680A784402F031FB53EC0C
:104B5000182B51EC100B0DF067FB41EC1B0B974829
:104B6000B0EE480AF0EE680A0421784402F020FB17
:104B700053EC182B51EC100B0DF056FB53EC192B8A
:104B80000DF06CF841EC100B51EC1B0B53EC102B9F
:104B90000DF020F941EC100B53EC102B9DED0E0B9A
:104BA00051EC100B0DF040FB53EC1A2B0DF072FD85
:104BB0009DED0E1B53EC112B0DF06CFD53EC1C2BDB
:104BC0000DF068FD41EC100BA9E79FED7D8B9FED8B
:104BD0007EBB9DED0E0B002953EC192B51EC100BF5
:104BE00052DA0DF03BF853EC182B0DF01DFB41ECA5
:104BF000180B77480621B0EE480AF0EE680A7844B0
:104C000002F0D6FA53EC182B51EC100B0DF00CFB04
:104C100041EC1D0B6F48B0EE480AF0EE680A042123
:104C2000784402F0C5FA53EC182B51EC100B0DF040
:104C3000FBFA53EC192B0DF011F841EC190B51EC68
:104C4000180B0CF005FC41EC180B53EC192B51EC34
:104C50001D0B0DF0BFF853EC182B0DF0E5FA53ECDB
:104C60001A2B0DF0EFFD41EC100B51EC180B53EC2F
:104C7000102B0CF0F3FF53EC1B2B0DF0D5FA53EC7B
:104C80001C2B0DF007FD6DE00DF004FD53EC182B0F
:104C90000DF0CAFA41EC180B0CF0DAFB41EC1A0BE0
:104CA00000208DED00AB00909DED000B51EC1A0B38
:104CB00053EC102B0CF0D2FF9DED000B41EC1C0BC4
:104CC00053EC102B51EC100B0DF0AEFA53EC182BEB
:104CD0000DF0E0FC53EC1C2B0DF07CF841EC1C0BB0
:104CE0003D48B0EE480AF0EE680A0621784402F02A
:104CF0005FFA53EC182B51EC100B0DF095FA41ECC8
:104D00001D0B3648B0EE480AF0EE680A04217844DC
:104D100002F04EFA53EC182B51EC100B0DF084FA04
:104D200053EC192B0CF09AFF41EC100B51EC1D0BBE
:104D300053EC102B0DF04EF853EC1A2B0DF074FAC7
:104D400053EC1C2B0CF08AFF41EC100B53EC102B96
:104D50009DED000B51EC100B0CF080FF53EC1B2B66
:104D60000DF062FA41EC100BD9E6000000000000E3
:104D70000000F03F00000000182D4454FB210940C2
:104D80000000F07F000000000000000000000000B4
:104D90000000E03F00000000000000000000F03FC5
:104DA000075C143326A6913C0000603C0000000024
:104DB000182D4454FB21F93F74EC000082EC0000F4
:104DC000000000000000E03F000000000000004084
:104DD000BEEB0000CCEB0000D0EA0000DEEA0000F1
:104DE00070B5C1482DED020B2DED0E8B82B0119DDB
:104DF00025F000449FEDBEDB9FEDBFEB84423EDB20
:104E0000A4F140511098A1F17F6108430FD0BC4834
:104E1000844202DC28D1109830B39DED100B02B013
:104E2000BDEC0E8B02B0BDE8704002F095BC9DED6C
:104E3000100B53EC1D2B51EC100B0DF0F5F99DED03
:104E4000100B41EC180B53EC1E2B51EC100B0DF01A
:104E5000EBF953EC182B0CF001FF41EC100B02B0F6
:104E6000BDEC0E8B02B070BD0120FBF7CEFD02B091
:104E7000BDEC0E8B02B0BDE8704002F081BCA148D1
:104E80009FEDA18B844256DA9DED100BB4F1795F52
:104E90000ADA51EC100BFFF7B8FD042808BF02F046
:104EA0008FFC9DED100BDAE753EC102B51EC100B3F
:104EB0000DF0BAF941EC190B95480621B0EE490AFC
:104EC000F0EE690A784402F073F953EC192B51ECB7
:104ED000100B0DF0A9F941EC1A0B8E48B0EE490AFF
:104EE000F0EE690A0421784402F062F953EC192BC0
:104EF00051EC100B0DF098F953EC182B0CF0AEFEA2
:104F000041EC100B51EC1A0B53EC102B0CF062FF20
:104F1000CDE900019DED000B53EC102B9DED100B26
:104F200051EC100B0DF080F99DED101B53EC112B83
:104F30000CF094FED2E09DED100B51EC100B06F03E
:104F4000FDFC53EC182B0DF0A5FB9FED730BCDE989
:104F5000000153EC102B9DED000B51EC100B0DF0EC
:104F600063F941EC190B6E480621B0EE490AF0EEE8
:104F7000690A784402F01CF953EC192B51EC100B20
:104F80000DF052F941EC1B0B6648B0EE490AF0EE09
:104F9000690A0421784402F00BF953EC192B51EC07
:104FA000100B0DF041F953EC182B0CF057FE41ECAF
:104FB0001C0B51EC190B0CF04BFA41EC180B5A4836
:104FC0009FED5BABA04222DC53EC1C2B51EC1B0B86
:104FD0000CF000FFCDE900019DED000B51EC180B2A
:104FE00053EC102B0DF020F953EC182B0CF036FE7F
:104FF00053EC1A2B0DF018F953EC1D2B0DF022FC7D
:1050000053EC1E2B0DF046FB41EC100B5FE08DEDD9
:10501000008B002000909DED000B51EC180B53EC21
:10502000102B0CF01BFE9DED000B41EC1E0B53EC06
:10503000102B51EC100B0DF0F7F853EC192B0DF071
:1050400029FB53EC1E2B0CF0C5FE41EC190B53EC65
:105050001C2B51EC1B0B0CF0BDFE41EC1B0B53EC5D
:105060001A2B51EC190B0DF0DFF853EC1D2B0DF042
:1050700011FB41EC190B53EC1A2B51EC180B0DF0F2
:10508000D3F853EC1B2B0DF0CFF853EC192B0DF08C
:10509000D9FB9DED000B41EC180B53EC1A2B51EC96
:1050A000100B0DF0C1F89FED249B53EC192B0DF064
:1050B000F1FA41EC100B51EC180B53EC102B0DF0E6
:1050C000C1FB53EC192B0DF0E5FA41EC100B002D50
:1050D0003FF7C5AE51EC100B0CF082FD41EC100B0C
:1050E000BDE60000000000000000F03F00000000EE
:1050F000075C143326A6913C182D4454FB21F93F3C
:105100000000F07F0000E03F000000000000F03FE2
:1051100048E9000056E90000000000000000E03F00
:105120009AE80000A8E800003333EF3F00000000D9
:105130000000000000000040182D4454FB21E93F0E
:1051400010B54FF00E412DED028BB0EE408A18EEF7
:10515000100A01EB4001B1F1145F5CD24FF0FE4147
:10516000B1EB400F24BF9FED400AF0EE400A12D28F
:1051700010F0004F19BFDFED3D0A9FED3D0ADFED56
:105180003D0A9FED3D0AFFEE001A81EE881AB0EE4F
:10519000418A18EE100A4FF0FC41B1EB400F1BD2D0
:1051A00010F0004FDFED351A9FED352A1DBFBEEE22
:1051B000001A70EEE10A30EE420AB6EE001A04BFA1
:1051C00070EEA10A30EE020A38EE412AF7EE001A1C
:1051D00048EE011A82EE218ADFED2A1A9FED2A2A73
:1051E00028EE081A01EE212ADFED281A41EE021AF4
:1051F0009FED272A01EE212ADFED261A41EE021A41
:1052000028EE011A01EE210A30EE080ABDEC028BED
:1052100030EE200A10BD4FF0E441B1EB400F0CD945
:1052200018EE100AFFF709FC042808BF02F0F8FA8C
:10523000B0EE480ABDEC028B10BD4FF07F41B1EBE0
:10524000400F07D2B0EE480ABDEC028BBDE810401B
:1052500002F0D0BA10F0004F14BF9FED0F0A9FED7F
:105260000F0ABDEC028B10BD000000000000C9BF9A
:1052700022AAFDB90000C93F22AAFD390060ED3E17
:10528000C30ACE372DAD65BD8FB8D53D0FB511BE64
:1052900061C84C3EA8AAAABEDB0FC9BFDB0FC93F3D
:1052A00030B583B00446FBF7ABFB9FED090B054619
:1052B0008DED000B002221466846FBF70FFC2846C7
:1052C000FBF7A3FB9DED000B03B030BD0000000019
:1052D000000000000000000010B52F499FED2C1BBE
:1052E0002DED020B84B0059820F000408842D8BF15
:1052F0009DED040B2DDD2949884209D1049840B960
:105300004FF00100FBF781FB02F03AFA06B010BD46
:1053100005DB9DED040B02F01FFA06B010BD6846D8
:105320009DED040B01F070FC10F0030004BF9DED37
:10533000021B9DED000B0CD001280ED09DED021B31
:105340009DED000B022817D0012001F0ADFF06B043
:1053500010BD01F075FE06B010BD9DED021B9DED68
:10536000000B012001F0A0FF51EC100B0CF038FCF9
:1053700006B041EC100B10BD01F062FE51EC100BB9
:105380000CF02EFC06B041EC100B10BD000000002C
:105390000000000000000000FB21E93F0000F07F5A
:1053A0002DED020B019820F0004001909DED000BC7
:1053B00002B07047000000002DE9F0412DED020B16
:1053C0009FED3D0B2DED028B9FED3D8BDDE90254F2
:1053D000C4F30A50A0F2FF36142E37DA002E18DA82
:1053E00053EC102B9DED020B51EC100B0CF036FC26
:1053F00053EC182B0DF0BEF857D2002CA4BF00249C
:10540000254652DA24F00040284318BF2E4C4CD0D9
:105410001AE02E4820FA06F704EA070028431FD0B6
:1054200053EC102B9DED020B51EC100B0CF016FC05
:1054300053EC182B0DF09EF837D2002C03DA4FF402
:105440008010F0400444BC4300252EE0332E07DCDE
:10545000A6F114004FF0FF3121FA00F73D4206D1CA
:105460009DED020BBDEC028B02B0BDE8F08153EC68
:10547000102B9DED020B51EC100B0DF00BF953ECC2
:10548000182B0DF077F810D2002C0DDA142E08BF6F
:10549000641C09D0C6F13400012101FA00F028444F
:1054A000A84238BF641C0546BD43CDE902549DEDBA
:1054B000020BD7E7000000009C7500883CE4377EB3
:1054C00000000000000000000000F0BFFFFF0F0020
:1054D00010B52DED040B86B09DED060B10EE100AF5
:1054E00010EE901A8DED000B002818BF0120084324
:1054F00020F00040C0F17F6000F1E040C00F21D1FA
:105500009DED080B10EE101A10EE900A8DED000BB9
:10551000002918BF0121084320F00040C0F17F603E
:1055200000F1E040C00F0DD129490798B1EB400FC1
:1055300004BF0698002842D00998400004BF08988C
:1055400000283CD09DED080B53EC102B9DED060B75
:1055500051EC100B0CF060FFCDE902019DED020B48
:1055600040F2FF7110EE900A8DED000B31EA105001
:1055700021D00798039900F0004001F000418842D3
:1055800019D09DED080B8DED040B9DED020B8DEDFB
:10559000000B10EE900A059961F31E0005909DED39
:1055A000041B9DED020B51EC110B53EC102B0DF075
:1055B00071F8CDE902019DED020B0AB010BD01208A
:1055C000FBF723FA0AB0BDE8104002F0D9B800009A
:1055D0000000E0FF0000000030B540F2FF742DED48
:1055E000048BF0EE608A18EE901A85B0B0EE408A17
:1055F0009FED2B9B05468DED008B34EA115147D072
:1056000053EC192B51EC180B0CF03CFD40D02A4602
:1056100051EC180B0DF0ADFA41EC180B18EE900A96
:105620008DED008B34EA10501CD053EC192B51EC4B
:10563000180B0CF027FD2BD10220FBF7E6F902F046
:10564000BFF810EE901A18EE900A8DED020B8DED5A
:10565000008B61F31E0003909DED020B05B0BDECC5
:10566000048B30BD0220FBF7D0F902F099F810EE60
:10567000901A18EE900A8DED020B8DED008B61F300
:105680001E0003909DED020B05B0BDEC048B30BDF8
:1056900005B0B0EE480AF0EE680ABDEC048B30BDF0
:1056A00000000000000000002DE9F04D2DED040B7E
:1056B0002DED0E8B96B0DDE92550279CDDF890A0EE
:1056C00025F0004624F00048BAF1000F14BF012174
:1056D000002101EB4502FC4953184A1093422AD39A
:1056E000002814BF0123002303EB44030B44F749B4
:1056F0008B4220D358EA00019FEDF59B76D0DFF86E
:10570000D8B35D4503D1BAF1000F05D188E0BAF1F5
:10571000000F08BF002100D0012101EB450111F568
:10572000001F08D8002814BF0121002101EB44010B
:1057300011F5001F0BD99DED261B9DED240B16B016
:10574000BDEC0E8B04B0BDE8F04D02F00FB80027A1
:10575000002DBCBFE149884521DAE1498845A8BF51
:1057600002271CDAC3451ADCDE4901EB2851142953
:1057700008DDC1F1340220FA02F101FA02F282429C
:105780000DD108E058B9C1F1140228FA02F101FA6A
:1057900002F2424503D101F00101C1F1020756EACC
:1057A0000A0124D1002C22DA002D18BF022F01D0CB
:1057B000012F0AD00220FBF728F916B0BDEC0E8BA2
:1057C00004B0BDE8F04D01F0AFBF0220FBF71DF9BA
:1057D00001F0AAFF51EC100B0CF002FA41EC100B97
:1057E00016B0BDEC0E8B04B0BDE8F08D18E09FED57
:1057F000BEAB9FEDBF8B002871D1B848804522D148
:1058000005F1804010F5801008BFBAF1000F07D0F5
:10581000B3450ADC002CA8BF9DED260BE0DA0DE0B5
:10582000B0EE490AF0EE690ADAE7002C06DA9DEDDF
:10583000260B51EC100B0CF0D3F96FE0AE48784416
:1058400090ED000BCCE7D8454DD1002C48DA2EB1B5
:1058500086423AD1BAF1000F42D126E0BAF1000FE8
:1058600013D00220FBF7D1F801F09AFF8DED020B67
:105870009DED240B8DED000B10EE900A039961F362
:105880001E0003909DED020BAAE78DED02AB9DED8E
:10589000240B1AEE901A10EE900A8DED000B61F3B6
:1058A0001E0003909DED020B9AE78DED028B9DED9E
:1058B000240B18EE901A10EE900A8DED000B61F398
:1058C0001E0003909DED020B8AE709DA9DED240B83
:1058D00051EC190B53EC102B0CF07CFA1EE020E07D
:1058E0009DED240B7CE786421BDAB4F1804F0DD08E
:1058F000A4F10050B0F1FF5013D1002D11DB9DED4C
:10590000240B51EC100B0BF0A3FD07E09DED240BD5
:1059100053EC102B51EC100B00F0C2BC41EC100BFF
:105920005EE79DED240B51EC100B06F007F8BAF181
:10593000000FCDE90E0142D19FED710B46B3A6F1E8
:10594000E040B0F17F600CD05E4538D1002D00DA28
:10595000A7B3022F0CBF01204FF0FF300CF0FDFB6E
:10596000DCE7002D01DD002C0DDA002D01DD002C1F
:105970001FDB002D16DA002C14DB012F08BF9FED72
:10598000620B3FF42DAFB0EE4A0AF0EE6A0A27E749
:10599000022F18BF002D0CD0012F0AD1002DFFF6C9
:1059A0001FAF06E0002DB8BF002C08DA012F3FF42E
:1059B00017AFB0EE480AF0EE680A11E71BE00120CD
:1059C00000EBE57050EA070115D0791EB0EE498A68
:1059D000F0EE698A084308BF9FED4D8B4E480025C5
:1059E000804570DD4D494E48884514DDB0420DDBE1
:1059F000002C19DB2FE00120FBF707F816B0BDECF7
:105A00000E8B04B0BDE8F04D01F0BABEB34502DC28
:105A1000002C09DC1FE0864202DA002C1BDA03E0CE
:105A20005E452BDD002C16DD0220FAF7EEFF01F0BB
:105A3000B7FE8DED020B53EC1A2B51EC180B0CF04A
:105A4000F3FBCDE900010399019861F31E00039077
:105A50009DED020BC4E60220FAF7D7FF01F0B0FE7D
:105A600010EE901A18EE900A8DED020B8DED008B62
:105A700061F31E0003909DED020BB1E69DED0E0B50
:105A800053EC192B51EC100B0CF0DCFE9FED260BA8
:105A9000CDE9080153EC102B9DED080B51EC100BD8
:105AA0000CF0C2FB9FED221B53EC112B0CF0F2FD0E
:105AB0009DED081B53EC112B0CF0B6FB9FED1E1B4C
:105AC00053EC112B3CE08CE0FFFF1F00FFFF0F00A9
:105AD000000000000000F03F0000F03F0000F07FF9
